{"contracts/InvestmentDApp.sol":{"InvestmentDApp":{"abi":[{"inputs":[{"internalType":"address","name":"_stakingToken","type":"address"},{"internalType":"address","name":"_treasury","type":"address"}],"stateMutability":"nonpayable","type":"constructor"},{"inputs":[{"internalType":"address","name":"owner","type":"address"}],"name":"OwnableInvalidOwner","type":"error"},{"inputs":[{"internalType":"address","name":"account","type":"address"}],"name":"OwnableUnauthorizedAccount","type":"error"},{"inputs":[],"name":"ReentrancyGuardReentrantCall","type":"error"},{"inputs":[{"internalType":"address","name":"token","type":"address"}],"name":"SafeERC20FailedOperation","type":"error"},{"anonymous":false,"inputs":[{"indexed":true,"internalType":"address","name":"user","type":"address"},{"indexed":false,"internalType":"uint256","name":"amount","type":"uint256"},{"indexed":false,"internalType":"uint256","name":"packageTier","type":"uint256"},{"indexed":true,"internalType":"address","name":"referrer","type":"address"}],"name":"Deposited","type":"event"},{"anonymous":false,"inputs":[{"indexed":true,"internalType":"address","name":"previousOwner","type":"address"},{"indexed":true,"internalType":"address","name":"newOwner","type":"address"}],"name":"OwnershipTransferred","type":"event"},{"anonymous":false,"inputs":[{"indexed":false,"internalType":"bool","name":"paused","type":"bool"}],"name":"Paused","type":"event"},{"anonymous":false,"inputs":[{"indexed":true,"internalType":"address","name":"referrer","type":"address"},{"indexed":true,"internalType":"address","name":"referee","type":"address"},{"indexed":false,"internalType":"uint256","name":"level","type":"uint256"},{"indexed":false,"internalType":"uint256","name":"amount","type":"uint256"}],"name":"ReferralPaid","type":"event"},{"anonymous":false,"inputs":[{"indexed":true,"internalType":"address","name":"user","type":"address"},{"indexed":false,"internalType":"uint256","name":"amount","type":"uint256"}],"name":"ReferralWithdrawn","type":"event"},{"anonymous":false,"inputs":[{"indexed":true,"internalType":"address","name":"user","type":"address"},{"indexed":false,"internalType":"uint256","name":"amount","type":"uint256"}],"name":"RewardsClaimed","type":"event"},{"anonymous":false,"inputs":[{"indexed":true,"internalType":"address","name":"newToken","type":"address"}],"name":"TokenUpdated","type":"event"},{"anonymous":false,"inputs":[{"indexed":true,"internalType":"address","name":"newTreasury","type":"address"}],"name":"TreasuryUpdated","type":"event"},{"inputs":[],"name":"BASIS_POINTS","outputs":[{"internalType":"uint256","name":"","type":"uint256"}],"stateMutability":"view","type":"function"},{"inputs":[],"name":"MAX_DEPOSIT","outputs":[{"internalType":"uint256","name":"","type":"uint256"}],"stateMutability":"view","type":"function"},{"inputs":[],"name":"MIN_DEPOSIT","outputs":[{"internalType":"uint256","name":"","type":"uint256"}],"stateMutability":"view","type":"function"},{"inputs":[],"name":"MIN_WITHDRAW","outputs":[{"internalType":"uint256","name":"","type":"uint256"}],"stateMutability":"view","type":"function"},{"inputs":[],"name":"SECONDS_PER_DAY","outputs":[{"internalType":"uint256","name":"","type":"uint256"}],"stateMutability":"view","type":"function"},{"inputs":[],"name":"TOTAL_RETURN_CAP","outputs":[{"internalType":"uint256","name":"","type":"uint256"}],"stateMutability":"view","type":"function"},{"inputs":[],"name":"claimRewards","outputs":[],"stateMutability":"nonpayable","type":"function"},{"inputs":[{"internalType":"uint256","name":"","type":"uint256"}],"name":"dailyROI","outputs":[{"internalType":"uint256","name":"","type":"uint256"}],"stateMutability":"view","type":"function"},{"inputs":[{"internalType":"uint256","name":"amount","type":"uint256"},{"internalType":"address","name":"referrer","type":"address"}],"name":"deposit","outputs":[],"stateMutability":"nonpayable","type":"function"},{"inputs":[{"internalType":"uint256","name":"amount","type":"uint256"}],"name":"emergencyWithdraw","outputs":[],"stateMutability":"nonpayable","type":"function"},{"inputs":[{"internalType":"address","name":"userAddress","type":"address"}],"name":"getAvailableRewards","outputs":[{"internalType":"uint256","name":"","type":"uint256"}],"stateMutability":"view","type":"function"},{"inputs":[{"internalType":"address","name":"userAddress","type":"address"},{"internalType":"uint256","name":"depositIndex","type":"uint256"}],"name":"getDeposit","outputs":[{"internalType":"uint256","name":"amount","type":"uint256"},{"internalType":"uint256","name":"packageTier","type":"uint256"},{"internalType":"uint256","name":"startTime","type":"uint256"},{"internalType":"uint256","name":"totalClaimed","type":"uint256"},{"internalType":"bool","name":"active","type":"bool"},{"internalType":"uint256","name":"availableRewards","type":"uint256"}],"stateMutability":"view","type":"function"},{"inputs":[{"internalType":"uint256","name":"amount","type":"uint256"}],"name":"getPackageTier","outputs":[{"internalType":"uint256","name":"","type":"uint256"}],"stateMutability":"view","type":"function"},{"inputs":[{"internalType":"address","name":"userAddress","type":"address"}],"name":"getReferralsByLevel","outputs":[{"internalType":"uint256[5]","name":"","type":"uint256[5]"}],"stateMutability":"view","type":"function"},{"inputs":[{"internalType":"address","name":"userAddress","type":"address"}],"name":"getUserInfo","outputs":[{"internalType":"address","name":"referrer","type":"address"},{"internalType":"uint256","name":"totalInvested","type":"uint256"},{"internalType":"uint256","name":"totalWithdrawn","type":"uint256"},{"internalType":"uint256","name":"referralBalance","type":"uint256"},{"internalType":"uint256","name":"totalReferrals","type":"uint256"},{"internalType":"uint256","name":"depositCount","type":"uint256"}],"stateMutability":"view","type":"function"},{"inputs":[],"name":"owner","outputs":[{"internalType":"address","name":"","type":"address"}],"stateMutability":"view","type":"function"},{"inputs":[{"internalType":"uint256","name":"","type":"uint256"}],"name":"packageMax","outputs":[{"internalType":"uint256","name":"","type":"uint256"}],"stateMutability":"view","type":"function"},{"inputs":[{"internalType":"uint256","name":"","type":"uint256"}],"name":"packageMin","outputs":[{"internalType":"uint256","name":"","type":"uint256"}],"stateMutability":"view","type":"function"},{"inputs":[],"name":"paused","outputs":[{"internalType":"bool","name":"","type":"bool"}],"stateMutability":"view","type":"function"},{"inputs":[{"internalType":"uint256","name":"","type":"uint256"}],"name":"referralPercentages","outputs":[{"internalType":"uint256","name":"","type":"uint256"}],"stateMutability":"view","type":"function"},{"inputs":[{"internalType":"address","name":"","type":"address"},{"internalType":"uint256","name":"","type":"uint256"}],"name":"referralsByLevel","outputs":[{"internalType":"uint256","name":"","type":"uint256"}],"stateMutability":"view","type":"function"},{"inputs":[],"name":"renounceOwnership","outputs":[],"stateMutability":"nonpayable","type":"function"},{"inputs":[{"internalType":"uint256","name":"tier","type":"uint256"},{"internalType":"uint256","name":"newROI","type":"uint256"}],"name":"setDailyROI","outputs":[],"stateMutability":"nonpayable","type":"function"},{"inputs":[{"internalType":"bool","name":"_paused","type":"bool"}],"name":"setPaused","outputs":[],"stateMutability":"nonpayable","type":"function"},{"inputs":[{"internalType":"address","name":"_token","type":"address"}],"name":"setStakingToken","outputs":[],"stateMutability":"nonpayable","type":"function"},{"inputs":[{"internalType":"address","name":"_treasury","type":"address"}],"name":"setTreasury","outputs":[],"stateMutability":"nonpayable","type":"function"},{"inputs":[],"name":"stakingToken","outputs":[{"internalType":"contract IERC20","name":"","type":"address"}],"stateMutability":"view","type":"function"},{"inputs":[{"internalType":"address","name":"newOwner","type":"address"}],"name":"transferOwnership","outputs":[],"stateMutability":"nonpayable","type":"function"},{"inputs":[],"name":"treasury","outputs":[{"internalType":"address","name":"","type":"address"}],"stateMutability":"view","type":"function"},{"inputs":[{"internalType":"address","name":"","type":"address"}],"name":"users","outputs":[{"internalType":"address","name":"referrer","type":"address"},{"internalType":"uint256","name":"totalInvested","type":"uint256"},{"internalType":"uint256","name":"totalWithdrawn","type":"uint256"},{"internalType":"uint256","name":"referralBalance","type":"uint256"},{"internalType":"uint256","name":"totalReferrals","type":"uint256"}],"stateMutability":"view","type":"function"},{"inputs":[],"name":"withdrawReferral","outputs":[],"stateMutability":"nonpayable","type":"function"}],"evm":{"bytecode":{"linkReferences":{},"object":"61012060405260646080908152609660a05260b460c05260c860e05260fa6101005262000031906004906005620002d6565b506040805160a081018252674563918244f4000081526801158e460913d0000060208201526802b5e3af16b188000091810191909152681b1ae4d6e2ef5000006060820152683635c9adc5dea000006080820152620000959060099060056200031e565b506040805160a081018252680107ad8f556c6c000081526802a802f8630a2400006020820152681b0d04202f47ec000091810191909152683627e8f712373c0000606082015268a2a15d09519be000006080820152620000fa90600e9060056200031e565b506040805160a0810182526105dc815261025860208201526101909181019190915261012c606082015260c860808201526200013b9060139060056200035a565b503480156200014957600080fd5b5060405162001c1738038062001c178339810160408190526200016c91620003c5565b33806200019457604051631e4fbdf760e01b8152600060048201526024015b60405180910390fd5b6200019f8162000286565b50600180556001600160a01b038216620001fc5760405162461bcd60e51b815260206004820152601560248201527f496e76616c696420746f6b656e2061646472657373000000000000000000000060448201526064016200018b565b6001600160a01b038116620002545760405162461bcd60e51b815260206004820152601860248201527f496e76616c69642074726561737572792061646472657373000000000000000060448201526064016200018b565b600280546001600160a01b039384166001600160a01b03199182161790915560038054929093169116179055620003fd565b600080546001600160a01b038381166001600160a01b0319831681178455604051919092169283917f8be0079c531659141344cd1fd0a4f28419497f9722a3daafe3b4186f6b6457e09190a35050565b82600581019282156200030c579160200282015b828111156200030c578251829060ff16905591602001919060010190620002ea565b506200031a92915062000391565b5090565b82600581019282156200030c579160200282015b828111156200030c57825182906001600160481b031690559160200191906001019062000332565b82600581019282156200030c579160200282015b828111156200030c578251829061ffff169055916020019190600101906200036e565b5b808211156200031a576000815560010162000392565b80516001600160a01b0381168114620003c057600080fd5b919050565b60008060408385031215620003d957600080fd5b620003e483620003a8565b9150620003f460208401620003a8565b90509250929050565b61180a806200040d6000396000f3fe608060405234801561001057600080fd5b50600436106101e55760003560e01c806374f0314f1161010f578063dd5967c3116100a2578063eea3b92111610071578063eea3b921146104f9578063f0f4426014610524578063f2fde38b14610537578063fbc45f7f146104d957600080fd5b8063dd5967c3146104c9578063e1e158a5146104d9578063e1f1c4a7146104e8578063e8e97aab146104f157600080fd5b8063a72c9e80116100de578063a72c9e8014610417578063a87430ba1461042a578063b662abf5146104a3578063cae82e2f146104b657600080fd5b806374f0314f146103e1578063873e31fa146103eb5780638da5cb5b146103fe5780639ea0e0741461040f57600080fd5b8063522e8847116101875780636386c1c7116101565780636386c1c71461032a5780636e553f65146103b3578063715018a6146103c657806372f702f3146103ce57600080fd5b8063522e8847146102a85780635312ea8e146102c85780635c975abb146102db57806361d027b3146102ff57600080fd5b80632f8045bb116101c35780632f8045bb14610259578063372500ab1461027a578063420a28cc14610282578063447a01291461029557600080fd5b806316c38b3c146101ea5780631e9b12ef146101ff5780632726b50614610212575b600080fd5b6101fd6101f83660046115e2565b61054a565b005b6101fd61020d366004611627565b6105aa565b610225610220366004611642565b61064f565b6040805196875260208701959095529385019290925260608401521515608083015260a082015260c0015b60405180910390f35b61026c61026736600461166c565b610721565b604051908152602001610250565b6101fd610738565b61026c61029036600461166c565b610996565b61026c6102a336600461166c565b6109a6565b6102bb6102b6366004611627565b6109b6565b6040516102509190611685565b6101fd6102d636600461166c565b610a26565b6003546102ef90600160a01b900460ff1681565b6040519015158152602001610250565b600354610312906001600160a01b031681565b6040516001600160a01b039091168152602001610250565b61037c610338366004611627565b6001600160a01b0390811660009081526018602052604090208054600182015460028301546003840154600485015460059095015493909516959194909390929091565b604080516001600160a01b0390971687526020870195909552938501929092526060840152608083015260a082015260c001610250565b6101fd6103c13660046116b6565b610a59565b6101fd610d71565b600254610312906001600160a01b031681565b61026c6201518081565b61026c6103f9366004611627565b610d83565b6000546001600160a01b0316610312565b6101fd610e0c565b6101fd6104253660046116e2565b610ef5565b610471610438366004611627565b601860205260009081526040902080546001820154600283015460038401546004909401546001600160a01b0390931693919290919085565b604080516001600160a01b0390961686526020860194909452928401919091526060830152608082015260a001610250565b61026c6104b136600461166c565b610fa2565b61026c6104c436600461166c565b610fb2565b61026c68a2a15d09519be0000081565b61026c674563918244f4000081565b61026c61271081565b61026c60c881565b61026c610507366004611642565b601960209081526000928352604080842090915290825290205481565b6101fd610532366004611627565b61105d565b6101fd610545366004611627565b611105565b610552611140565b60038054821515600160a01b0260ff60a01b199091161790556040517f0e2fb031ee032dc02d8011dc50b816eb450cf856abd8261680dac74f72165bd29061059f90831515815260200190565b60405180910390a150565b6105b2611140565b6001600160a01b0381166106055760405162461bcd60e51b8152602060048201526015602482015274496e76616c696420746f6b656e206164647265737360581b60448201526064015b60405180910390fd5b600280546001600160a01b0319166001600160a01b0383169081179091556040517f5ba6b30cd4b2f9e9e67f4feb9b9df10d5da3b057598e6901b217b7d590345e3090600090a250565b6001600160a01b03821660009081526018602052604081206005810154829182918291829182919088106106bd5760405162461bcd60e51b8152602060048201526015602482015274092dcecc2d8d2c840c8cae0dee6d2e840d2dcc8caf605b1b60448201526064016105fc565b60008160050189815481106106d4576106d4611704565b9060005260206000209060050201905060006106f08b8b61116d565b8254600184015460028501546003860154600490960154929f919e509c50939a5060ff169850965090945050505050565b6009816005811061073157600080fd5b0154905081565b6107406112b5565b600354600160a01b900460ff161561076a5760405162461bcd60e51b81526004016105fc9061171a565b3360008181526018602052604081209161078390610d83565b9050674563918244f400008110156107d85760405162461bcd60e51b815260206004820152601860248201527710995b1bddc81b5a5b9a5b5d5b481dda5d1a191c985dd85b60421b60448201526064016105fc565b60005b6005830154811015610922578260050181815481106107fc576107fc611704565b600091825260209091206004600590920201015460ff1615610910576000610824338361116d565b90508084600501838154811061083c5761083c611704565b9060005260206000209060050201600301600082825461085c919061175c565b925050819055506000606460c886600501858154811061087e5761087e611704565b90600052602060002090600502016000015461089a919061176f565b6108a49190611786565b9050808560050184815481106108bc576108bc611704565b9060005260206000209060050201600301541061090d5760008560050184815481106108ea576108ea611704565b60009182526020909120600590910201600401805460ff19169115159190911790555b50505b8061091a816117a8565b9150506107db565b5080826002016000828254610937919061175c565b9091555050600254610953906001600160a01b031633836112df565b60405181815233907ffc30cddea38e2bf4d6ea7d3f9ed3b6ad7f176419f4963bd81318067a4aee73fe906020015b60405180910390a2505061099460018055565b565b600e816005811061073157600080fd5b6004816005811061073157600080fd5b6109be6115c4565b6109c66115c4565b60005b6005811015610a1f576001600160a01b0384166000908152601960209081526040808320848452909152902054828260058110610a0857610a08611704565b602002015280610a17816117a8565b9150506109c9565b5092915050565b610a2e611140565b610a56610a436000546001600160a01b031690565b6002546001600160a01b031690836112df565b50565b610a616112b5565b600354600160a01b900460ff1615610a8b5760405162461bcd60e51b81526004016105fc9061171a565b674563918244f400008210158015610aac575068a2a15d09519be000008211155b610af15760405162461bcd60e51b8152602060048201526016602482015275125b9d985b1a590819195c1bdcda5d08185b5bdd5b9d60521b60448201526064016105fc565b336001600160a01b03821603610b415760405162461bcd60e51b815260206004820152601560248201527421b0b73737ba103932b332b9103cb7bab939b2b63360591b60448201526064016105fc565b6000610b4c83610fb2565b905060058110610b955760405162461bcd60e51b815260206004820152601460248201527324b73b30b634b2103830b1b5b0b3b2903a34b2b960611b60448201526064016105fc565b33600090815260186020526040902080546001600160a01b0316158015610bc457506001600160a01b03831615155b8015610bea57506001600160a01b03831660009081526018602052604090206001015415155b15610c095780546001600160a01b0319166001600160a01b0384161781555b600254610c21906001600160a01b0316333087611343565b6040805160a08101825285815260208082018581524293830193845260006060840181815260016080860181815260058981018054808501825590865296852097519602909601948555925184840155945160028401559351600383015591516004909101805460ff191691151591909117905582018054869290610ca790849061175c565b909155505080546001600160a01b031615610ccb57610cc63385611382565b610d19565b6003546001600160a01b031615610d19576000612710610ced86610bb861176f565b610cf79190611786565b600354600254919250610d17916001600160a01b039081169116836112df565b505b805460408051868152602081018590526001600160a01b039092169133917fa49637e3f6491de6c2c23c5006bef69df603d0dba9d65c8b756fe46ac29810b9910160405180910390a35050610d6d60018055565b5050565b610d79611140565b6109946000611503565b6001600160a01b038116600090815260186020526040812081805b6005830154811015610e0457826005018181548110610dbf57610dbf611704565b600091825260209091206004600590920201015460ff1615610df257610de5858261116d565b610def908361175c565b91505b80610dfc816117a8565b915050610d9e565b509392505050565b610e146112b5565b600354600160a01b900460ff1615610e3e5760405162461bcd60e51b81526004016105fc9061171a565b3360009081526018602052604090206003810154674563918244f40000811015610ea55760405162461bcd60e51b815260206004820152601860248201527710995b1bddc81b5a5b9a5b5d5b481dda5d1a191c985dd85b60421b60448201526064016105fc565b60006003830155600254610ec3906001600160a01b031633836112df565b60405181815233907f8d38441deb8d3c27d5ddaa8308892edabf1c6556c655494ac56ab41f7d85220890602001610981565b610efd611140565b60058210610f3c5760405162461bcd60e51b815260206004820152600c60248201526b24b73b30b634b2103a34b2b960a11b60448201526064016105fc565b600081118015610f4e57506101f48111155b610f885760405162461bcd60e51b815260206004820152600b60248201526a496e76616c696420524f4960a81b60448201526064016105fc565b8060048360058110610f9c57610f9c611704565b01555050565b6013816005811061073157600080fd5b6000805b60058110156110145760098160058110610fd257610fd2611704565b01548310158015610ff75750600e8160058110610ff157610ff1611704565b01548311155b156110025792915050565b8061100c816117a8565b915050610fb6565b5060405162461bcd60e51b815260206004820152601f60248201527f416d6f756e7420646f6573206e6f742066697420616e79207061636b6167650060448201526064016105fc565b611065611140565b6001600160a01b0381166110bb5760405162461bcd60e51b815260206004820152601860248201527f496e76616c69642074726561737572792061646472657373000000000000000060448201526064016105fc565b600380546001600160a01b0319166001600160a01b0383169081179091556040517f7dae230f18360d76a040c81f050aa14eb9d6dc7901b20fc5d855e2a20fe814d190600090a250565b61110d611140565b6001600160a01b03811661113757604051631e4fbdf760e01b8152600060048201526024016105fc565b610a5681611503565b6000546001600160a01b031633146109945760405163118cdaa760e01b81523360048201526024016105fc565b6001600160a01b03821660009081526018602052604081206005810180548391908590811061119e5761119e611704565b60009182526020909120600590910201600481015490915060ff166111c8576000925050506112af565b60008160020154426111da91906117c1565b9050600060048360010154600581106111f5576111f5611704565b01549050600061120a6127106201518061176f565b8454849061121990859061176f565b611223919061176f565b61122d9190611786565b90506000606460c88660000154611244919061176f565b61124e9190611786565b600386015490915081611261828561175c565b111561128d5780821161127557600061127f565b61127f81836117c1565b9750505050505050506112af565b80831161129b5760006112a5565b6112a581846117c1565b9750505050505050505b92915050565b6002600154036112d857604051633ee5aeb560e01b815260040160405180910390fd5b6002600155565b6040516001600160a01b0383811660248301526044820183905261133e91859182169063a9059cbb906064015b604051602081830303815290604052915060e01b6020820180516001600160e01b038381831617835250505050611553565b505050565b6040516001600160a01b03848116602483015283811660448301526064820183905261137c9186918216906323b872dd9060840161130c565b50505050565b6001600160a01b03808316600090815260186020526040812054909116905b6005811080156113b957506001600160a01b03821615155b1561137c576000612710601383600581106113d6576113d6611704565b01546113e2908661176f565b6113ec9190611786565b6001600160a01b03841660009081526018602052604081206003018054929350839290919061141c90849061175c565b90915550506001600160a01b0383166000908152601860205260408120600401805491611448836117a8565b90915550506001600160a01b0383166000908152601960209081526040808320858452909152812080549161147c836117a8565b90915550506001600160a01b038086169084167f65db98422e8b7340e0d6dfa99bbadd4ba95a51fefafd8f0e1cbbb2e819429a426114bb85600161175c565b60408051918252602082018690520160405180910390a3506001600160a01b0391821660009081526018602052604090205490911690806114fb816117a8565b9150506113a1565b600080546001600160a01b038381166001600160a01b0319831681178455604051919092169283917f8be0079c531659141344cd1fd0a4f28419497f9722a3daafe3b4186f6b6457e09190a35050565b600080602060008451602086016000885af180611576576040513d6000823e3d81fd5b50506000513d9150811561158e57806001141561159b565b6001600160a01b0384163b155b1561137c57604051635274afe760e01b81526001600160a01b03851660048201526024016105fc565b6040518060a001604052806005906020820280368337509192915050565b6000602082840312156115f457600080fd5b8135801515811461160457600080fd5b9392505050565b80356001600160a01b038116811461162257600080fd5b919050565b60006020828403121561163957600080fd5b6116048261160b565b6000806040838503121561165557600080fd5b61165e8361160b565b946020939093013593505050565b60006020828403121561167e57600080fd5b5035919050565b60a08101818360005b60058110156116ad57815183526020928301929091019060010161168e565b50505092915050565b600080604083850312156116c957600080fd5b823591506116d96020840161160b565b90509250929050565b600080604083850312156116f557600080fd5b50508035926020909101359150565b634e487b7160e01b600052603260045260246000fd5b60208082526012908201527110dbdb9d1c9858dd081a5cc81c185d5cd95960721b604082015260600190565b634e487b7160e01b600052601160045260246000fd5b808201808211156112af576112af611746565b80820281158282048414176112af576112af611746565b6000826117a357634e487b7160e01b600052601260045260246000fd5b500490565b6000600182016117ba576117ba611746565b5060010190565b818103818111156112af576112af61174656fea2646970667358221220c648696a27e18cd73db800857b3bff1fc7351ea1a92424ecd6fb3630de725c1964736f6c63430008140033","opcodes":"PUSH2 0x120 PUSH1 0x40 MSTORE PUSH1 0x64 PUSH1 0x80 SWAP1 DUP2 MSTORE PUSH1 0x96 PUSH1 0xA0 MSTORE PUSH1 0xB4 PUSH1 0xC0 MSTORE PUSH1 0xC8 PUSH1 0xE0 MSTORE PUSH1 0xFA PUSH2 0x100 MSTORE PUSH3 0x31 SWAP1 PUSH1 0x4 SWAP1 PUSH1 0x5 PUSH3 0x2D6 JUMP JUMPDEST POP PUSH1 0x40 DUP1 MLOAD PUSH1 0xA0 DUP2 ADD DUP3 MSTORE PUSH8 0x4563918244F40000 DUP2 MSTORE PUSH9 0x1158E460913D00000 PUSH1 0x20 DUP3 ADD MSTORE PUSH9 0x2B5E3AF16B1880000 SWAP2 DUP2 ADD SWAP2 SWAP1 SWAP2 MSTORE PUSH9 0x1B1AE4D6E2EF500000 PUSH1 0x60 DUP3 ADD MSTORE PUSH9 0x3635C9ADC5DEA00000 PUSH1 0x80 DUP3 ADD MSTORE PUSH3 0x95 SWAP1 PUSH1 0x9 SWAP1 PUSH1 0x5 PUSH3 0x31E JUMP JUMPDEST POP PUSH1 0x40 DUP1 MLOAD PUSH1 0xA0 DUP2 ADD DUP3 MSTORE PUSH9 0x107AD8F556C6C0000 DUP2 MSTORE PUSH9 0x2A802F8630A240000 PUSH1 0x20 DUP3 ADD MSTORE PUSH9 0x1B0D04202F47EC0000 SWAP2 DUP2 ADD SWAP2 SWAP1 SWAP2 MSTORE PUSH9 0x3627E8F712373C0000 PUSH1 0x60 DUP3 ADD MSTORE PUSH9 0xA2A15D09519BE00000 PUSH1 0x80 DUP3 ADD MSTORE PUSH3 0xFA SWAP1 PUSH1 0xE SWAP1 PUSH1 0x5 PUSH3 0x31E JUMP JUMPDEST POP PUSH1 0x40 DUP1 MLOAD PUSH1 0xA0 DUP2 ADD DUP3 MSTORE PUSH2 0x5DC DUP2 MSTORE PUSH2 0x258 PUSH1 0x20 DUP3 ADD MSTORE PUSH2 0x190 SWAP2 DUP2 ADD SWAP2 SWAP1 SWAP2 MSTORE PUSH2 0x12C PUSH1 0x60 DUP3 ADD MSTORE PUSH1 0xC8 PUSH1 0x80 DUP3 ADD MSTORE PUSH3 0x13B SWAP1 PUSH1 0x13 SWAP1 PUSH1 0x5 PUSH3 0x35A JUMP JUMPDEST POP CALLVALUE DUP1 ISZERO PUSH3 0x149 JUMPI PUSH1 0x0 DUP1 REVERT JUMPDEST POP PUSH1 0x40 MLOAD PUSH3 0x1C17 CODESIZE SUB DUP1 PUSH3 0x1C17 DUP4 CODECOPY DUP2 ADD PUSH1 0x40 DUP2 SWAP1 MSTORE PUSH3 0x16C SWAP2 PUSH3 0x3C5 JUMP JUMPDEST CALLER DUP1 PUSH3 0x194 JUMPI PUSH1 0x40 MLOAD PUSH4 0x1E4FBDF7 PUSH1 0xE0 SHL DUP2 MSTORE PUSH1 0x0 PUSH1 0x4 DUP3 ADD MSTORE PUSH1 0x24 ADD JUMPDEST PUSH1 0x40 MLOAD DUP1 SWAP2 SUB SWAP1 REVERT JUMPDEST PUSH3 0x19F DUP2 PUSH3 0x286 JUMP JUMPDEST POP PUSH1 0x1 DUP1 SSTORE PUSH1 0x1 PUSH1 0x1 PUSH1 0xA0 SHL SUB DUP3 AND PUSH3 0x1FC JUMPI PUSH1 0x40 MLOAD PUSH3 0x461BCD PUSH1 0xE5 SHL DUP2 MSTORE PUSH1 0x20 PUSH1 0x4 DUP3 ADD MSTORE PUSH1 0x15 PUSH1 0x24 DUP3 ADD MSTORE PUSH32 0x496E76616C696420746F6B656E20616464726573730000000000000000000000 PUSH1 0x44 DUP3 ADD MSTORE PUSH1 0x64 ADD PUSH3 0x18B JUMP JUMPDEST PUSH1 0x1 PUSH1 0x1 PUSH1 0xA0 SHL SUB DUP2 AND PUSH3 0x254 JUMPI PUSH1 0x40 MLOAD PUSH3 0x461BCD PUSH1 0xE5 SHL DUP2 MSTORE PUSH1 0x20 PUSH1 0x4 DUP3 ADD MSTORE PUSH1 0x18 PUSH1 0x24 DUP3 ADD MSTORE PUSH32 0x496E76616C696420747265617375727920616464726573730000000000000000 PUSH1 0x44 DUP3 ADD MSTORE PUSH1 0x64 ADD PUSH3 0x18B JUMP JUMPDEST PUSH1 0x2 DUP1 SLOAD PUSH1 0x1 PUSH1 0x1 PUSH1 0xA0 SHL SUB SWAP4 DUP5 AND PUSH1 0x1 PUSH1 0x1 PUSH1 0xA0 SHL SUB NOT SWAP2 DUP3 AND OR SWAP1 SWAP2 SSTORE PUSH1 0x3 DUP1 SLOAD SWAP3 SWAP1 SWAP4 AND SWAP2 AND OR SWAP1 SSTORE PUSH3 0x3FD JUMP JUMPDEST PUSH1 0x0 DUP1 SLOAD PUSH1 0x1 PUSH1 0x1 PUSH1 0xA0 SHL SUB DUP4 DUP2 AND PUSH1 0x1 PUSH1 0x1 PUSH1 0xA0 SHL SUB NOT DUP4 AND DUP2 OR DUP5 SSTORE PUSH1 0x40 MLOAD SWAP2 SWAP1 SWAP3 AND SWAP3 DUP4 SWAP2 PUSH32 0x8BE0079C531659141344CD1FD0A4F28419497F9722A3DAAFE3B4186F6B6457E0 SWAP2 SWAP1 LOG3 POP POP JUMP JUMPDEST DUP3 PUSH1 0x5 DUP2 ADD SWAP3 DUP3 ISZERO PUSH3 0x30C JUMPI SWAP2 PUSH1 0x20 MUL DUP3 ADD JUMPDEST DUP3 DUP2 GT ISZERO PUSH3 0x30C JUMPI DUP3 MLOAD DUP3 SWAP1 PUSH1 0xFF AND SWAP1 SSTORE SWAP2 PUSH1 0x20 ADD SWAP2 SWAP1 PUSH1 0x1 ADD SWAP1 PUSH3 0x2EA JUMP JUMPDEST POP PUSH3 0x31A SWAP3 SWAP2 POP PUSH3 0x391 JUMP JUMPDEST POP SWAP1 JUMP JUMPDEST DUP3 PUSH1 0x5 DUP2 ADD SWAP3 DUP3 ISZERO PUSH3 0x30C JUMPI SWAP2 PUSH1 0x20 MUL DUP3 ADD JUMPDEST DUP3 DUP2 GT ISZERO PUSH3 0x30C JUMPI DUP3 MLOAD DUP3 SWAP1 PUSH1 0x1 PUSH1 0x1 PUSH1 0x48 SHL SUB AND SWAP1 SSTORE SWAP2 PUSH1 0x20 ADD SWAP2 SWAP1 PUSH1 0x1 ADD SWAP1 PUSH3 0x332 JUMP JUMPDEST DUP3 PUSH1 0x5 DUP2 ADD SWAP3 DUP3 ISZERO PUSH3 0x30C JUMPI SWAP2 PUSH1 0x20 MUL DUP3 ADD JUMPDEST DUP3 DUP2 GT ISZERO PUSH3 0x30C JUMPI DUP3 MLOAD DUP3 SWAP1 PUSH2 0xFFFF AND SWAP1 SSTORE SWAP2 PUSH1 0x20 ADD SWAP2 SWAP1 PUSH1 0x1 ADD SWAP1 PUSH3 0x36E JUMP JUMPDEST JUMPDEST DUP1 DUP3 GT ISZERO PUSH3 0x31A JUMPI PUSH1 0x0 DUP2 SSTORE PUSH1 0x1 ADD PUSH3 0x392 JUMP JUMPDEST DUP1 MLOAD PUSH1 0x1 PUSH1 0x1 PUSH1 0xA0 SHL SUB DUP2 AND DUP2 EQ PUSH3 0x3C0 JUMPI PUSH1 0x0 DUP1 REVERT JUMPDEST SWAP2 SWAP1 POP JUMP JUMPDEST PUSH1 0x0 DUP1 PUSH1 0x40 DUP4 DUP6 SUB SLT ISZERO PUSH3 0x3D9 JUMPI PUSH1 0x0 DUP1 REVERT JUMPDEST PUSH3 0x3E4 DUP4 PUSH3 0x3A8 JUMP JUMPDEST SWAP2 POP PUSH3 0x3F4 PUSH1 0x20 DUP5 ADD PUSH3 0x3A8 JUMP JUMPDEST SWAP1 POP SWAP3 POP SWAP3 SWAP1 POP JUMP JUMPDEST PUSH2 0x180A DUP1 PUSH3 0x40D PUSH1 0x0 CODECOPY PUSH1 0x0 RETURN INVALID PUSH1 0x80 PUSH1 0x40 MSTORE CALLVALUE DUP1 ISZERO PUSH2 0x10 JUMPI PUSH1 0x0 DUP1 REVERT JUMPDEST POP PUSH1 0x4 CALLDATASIZE LT PUSH2 0x1E5 JUMPI PUSH1 0x0 CALLDATALOAD PUSH1 0xE0 SHR DUP1 PUSH4 0x74F0314F GT PUSH2 0x10F JUMPI DUP1 PUSH4 0xDD5967C3 GT PUSH2 0xA2 JUMPI DUP1 PUSH4 0xEEA3B921 GT PUSH2 0x71 JUMPI DUP1 PUSH4 0xEEA3B921 EQ PUSH2 0x4F9 JUMPI DUP1 PUSH4 0xF0F44260 EQ PUSH2 0x524 JUMPI DUP1 PUSH4 0xF2FDE38B EQ PUSH2 0x537 JUMPI DUP1 PUSH4 0xFBC45F7F EQ PUSH2 0x4D9 JUMPI PUSH1 0x0 DUP1 REVERT JUMPDEST DUP1 PUSH4 0xDD5967C3 EQ PUSH2 0x4C9 JUMPI DUP1 PUSH4 0xE1E158A5 EQ PUSH2 0x4D9 JUMPI DUP1 PUSH4 0xE1F1C4A7 EQ PUSH2 0x4E8 JUMPI DUP1 PUSH4 0xE8E97AAB EQ PUSH2 0x4F1 JUMPI PUSH1 0x0 DUP1 REVERT JUMPDEST DUP1 PUSH4 0xA72C9E80 GT PUSH2 0xDE JUMPI DUP1 PUSH4 0xA72C9E80 EQ PUSH2 0x417 JUMPI DUP1 PUSH4 0xA87430BA EQ PUSH2 0x42A JUMPI DUP1 PUSH4 0xB662ABF5 EQ PUSH2 0x4A3 JUMPI DUP1 PUSH4 0xCAE82E2F EQ PUSH2 0x4B6 JUMPI PUSH1 0x0 DUP1 REVERT JUMPDEST DUP1 PUSH4 0x74F0314F EQ PUSH2 0x3E1 JUMPI DUP1 PUSH4 0x873E31FA EQ PUSH2 0x3EB JUMPI DUP1 PUSH4 0x8DA5CB5B EQ PUSH2 0x3FE JUMPI DUP1 PUSH4 0x9EA0E074 EQ PUSH2 0x40F JUMPI PUSH1 0x0 DUP1 REVERT JUMPDEST DUP1 PUSH4 0x522E8847 GT PUSH2 0x187 JUMPI DUP1 PUSH4 0x6386C1C7 GT PUSH2 0x156 JUMPI DUP1 PUSH4 0x6386C1C7 EQ PUSH2 0x32A JUMPI DUP1 PUSH4 0x6E553F65 EQ PUSH2 0x3B3 JUMPI DUP1 PUSH4 0x715018A6 EQ PUSH2 0x3C6 JUMPI DUP1 PUSH4 0x72F702F3 EQ PUSH2 0x3CE JUMPI PUSH1 0x0 DUP1 REVERT JUMPDEST DUP1 PUSH4 0x522E8847 EQ PUSH2 0x2A8 JUMPI DUP1 PUSH4 0x5312EA8E EQ PUSH2 0x2C8 JUMPI DUP1 PUSH4 0x5C975ABB EQ PUSH2 0x2DB JUMPI DUP1 PUSH4 0x61D027B3 EQ PUSH2 0x2FF JUMPI PUSH1 0x0 DUP1 REVERT JUMPDEST DUP1 PUSH4 0x2F8045BB GT PUSH2 0x1C3 JUMPI DUP1 PUSH4 0x2F8045BB EQ PUSH2 0x259 JUMPI DUP1 PUSH4 0x372500AB EQ PUSH2 0x27A JUMPI DUP1 PUSH4 0x420A28CC EQ PUSH2 0x282 JUMPI DUP1 PUSH4 0x447A0129 EQ PUSH2 0x295 JUMPI PUSH1 0x0 DUP1 REVERT JUMPDEST DUP1 PUSH4 0x16C38B3C EQ PUSH2 0x1EA JUMPI DUP1 PUSH4 0x1E9B12EF EQ PUSH2 0x1FF JUMPI DUP1 PUSH4 0x2726B506 EQ PUSH2 0x212 JUMPI JUMPDEST PUSH1 0x0 DUP1 REVERT JUMPDEST PUSH2 0x1FD PUSH2 0x1F8 CALLDATASIZE PUSH1 0x4 PUSH2 0x15E2 JUMP JUMPDEST PUSH2 0x54A JUMP JUMPDEST STOP JUMPDEST PUSH2 0x1FD PUSH2 0x20D CALLDATASIZE PUSH1 0x4 PUSH2 0x1627 JUMP JUMPDEST PUSH2 0x5AA JUMP JUMPDEST PUSH2 0x225 PUSH2 0x220 CALLDATASIZE PUSH1 0x4 PUSH2 0x1642 JUMP JUMPDEST PUSH2 0x64F JUMP JUMPDEST PUSH1 0x40 DUP1 MLOAD SWAP7 DUP8 MSTORE PUSH1 0x20 DUP8 ADD SWAP6 SWAP1 SWAP6 MSTORE SWAP4 DUP6 ADD SWAP3 SWAP1 SWAP3 MSTORE PUSH1 0x60 DUP5 ADD MSTORE ISZERO ISZERO PUSH1 0x80 DUP4 ADD MSTORE PUSH1 0xA0 DUP3 ADD MSTORE PUSH1 0xC0 ADD JUMPDEST PUSH1 0x40 MLOAD DUP1 SWAP2 SUB SWAP1 RETURN JUMPDEST PUSH2 0x26C PUSH2 0x267 CALLDATASIZE PUSH1 0x4 PUSH2 0x166C JUMP JUMPDEST PUSH2 0x721 JUMP JUMPDEST PUSH1 0x40 MLOAD SWAP1 DUP2 MSTORE PUSH1 0x20 ADD PUSH2 0x250 JUMP JUMPDEST PUSH2 0x1FD PUSH2 0x738 JUMP JUMPDEST PUSH2 0x26C PUSH2 0x290 CALLDATASIZE PUSH1 0x4 PUSH2 0x166C JUMP JUMPDEST PUSH2 0x996 JUMP JUMPDEST PUSH2 0x26C PUSH2 0x2A3 CALLDATASIZE PUSH1 0x4 PUSH2 0x166C JUMP JUMPDEST PUSH2 0x9A6 JUMP JUMPDEST PUSH2 0x2BB PUSH2 0x2B6 CALLDATASIZE PUSH1 0x4 PUSH2 0x1627 JUMP JUMPDEST PUSH2 0x9B6 JUMP JUMPDEST PUSH1 0x40 MLOAD PUSH2 0x250 SWAP2 SWAP1 PUSH2 0x1685 JUMP JUMPDEST PUSH2 0x1FD PUSH2 0x2D6 CALLDATASIZE PUSH1 0x4 PUSH2 0x166C JUMP JUMPDEST PUSH2 0xA26 JUMP JUMPDEST PUSH1 0x3 SLOAD PUSH2 0x2EF SWAP1 PUSH1 0x1 PUSH1 0xA0 SHL SWAP1 DIV PUSH1 0xFF AND DUP2 JUMP JUMPDEST PUSH1 0x40 MLOAD SWAP1 ISZERO ISZERO DUP2 MSTORE PUSH1 0x20 ADD PUSH2 0x250 JUMP JUMPDEST PUSH1 0x3 SLOAD PUSH2 0x312 SWAP1 PUSH1 0x1 PUSH1 0x1 PUSH1 0xA0 SHL SUB AND DUP2 JUMP JUMPDEST PUSH1 0x40 MLOAD PUSH1 0x1 PUSH1 0x1 PUSH1 0xA0 SHL SUB SWAP1 SWAP2 AND DUP2 MSTORE PUSH1 0x20 ADD PUSH2 0x250 JUMP JUMPDEST PUSH2 0x37C PUSH2 0x338 CALLDATASIZE PUSH1 0x4 PUSH2 0x1627 JUMP JUMPDEST PUSH1 0x1 PUSH1 0x1 PUSH1 0xA0 SHL SUB SWAP1 DUP2 AND PUSH1 0x0 SWAP1 DUP2 MSTORE PUSH1 0x18 PUSH1 0x20 MSTORE PUSH1 0x40 SWAP1 KECCAK256 DUP1 SLOAD PUSH1 0x1 DUP3 ADD SLOAD PUSH1 0x2 DUP4 ADD SLOAD PUSH1 0x3 DUP5 ADD SLOAD PUSH1 0x4 DUP6 ADD SLOAD PUSH1 0x5 SWAP1 SWAP6 ADD SLOAD SWAP4 SWAP1 SWAP6 AND SWAP6 SWAP2 SWAP5 SWAP1 SWAP4 SWAP1 SWAP3 SWAP1 SWAP2 JUMP JUMPDEST PUSH1 0x40 DUP1 MLOAD PUSH1 0x1 PUSH1 0x1 PUSH1 0xA0 SHL SUB SWAP1 SWAP8 AND DUP8 MSTORE PUSH1 0x20 DUP8 ADD SWAP6 SWAP1 SWAP6 MSTORE SWAP4 DUP6 ADD SWAP3 SWAP1 SWAP3 MSTORE PUSH1 0x60 DUP5 ADD MSTORE PUSH1 0x80 DUP4 ADD MSTORE PUSH1 0xA0 DUP3 ADD MSTORE PUSH1 0xC0 ADD PUSH2 0x250 JUMP JUMPDEST PUSH2 0x1FD PUSH2 0x3C1 CALLDATASIZE PUSH1 0x4 PUSH2 0x16B6 JUMP JUMPDEST PUSH2 0xA59 JUMP JUMPDEST PUSH2 0x1FD PUSH2 0xD71 JUMP JUMPDEST PUSH1 0x2 SLOAD PUSH2 0x312 SWAP1 PUSH1 0x1 PUSH1 0x1 PUSH1 0xA0 SHL SUB AND DUP2 JUMP JUMPDEST PUSH2 0x26C PUSH3 0x15180 DUP2 JUMP JUMPDEST PUSH2 0x26C PUSH2 0x3F9 CALLDATASIZE PUSH1 0x4 PUSH2 0x1627 JUMP JUMPDEST PUSH2 0xD83 JUMP JUMPDEST PUSH1 0x0 SLOAD PUSH1 0x1 PUSH1 0x1 PUSH1 0xA0 SHL SUB AND PUSH2 0x312 JUMP JUMPDEST PUSH2 0x1FD PUSH2 0xE0C JUMP JUMPDEST PUSH2 0x1FD PUSH2 0x425 CALLDATASIZE PUSH1 0x4 PUSH2 0x16E2 JUMP JUMPDEST PUSH2 0xEF5 JUMP JUMPDEST PUSH2 0x471 PUSH2 0x438 CALLDATASIZE PUSH1 0x4 PUSH2 0x1627 JUMP JUMPDEST PUSH1 0x18 PUSH1 0x20 MSTORE PUSH1 0x0 SWAP1 DUP2 MSTORE PUSH1 0x40 SWAP1 KECCAK256 DUP1 SLOAD PUSH1 0x1 DUP3 ADD SLOAD PUSH1 0x2 DUP4 ADD SLOAD PUSH1 0x3 DUP5 ADD SLOAD PUSH1 0x4 SWAP1 SWAP5 ADD SLOAD PUSH1 0x1 PUSH1 0x1 PUSH1 0xA0 SHL SUB SWAP1 SWAP4 AND SWAP4 SWAP2 SWAP3 SWAP1 SWAP2 SWAP1 DUP6 JUMP JUMPDEST PUSH1 0x40 DUP1 MLOAD PUSH1 0x1 PUSH1 0x1 PUSH1 0xA0 SHL SUB SWAP1 SWAP7 AND DUP7 MSTORE PUSH1 0x20 DUP7 ADD SWAP5 SWAP1 SWAP5 MSTORE SWAP3 DUP5 ADD SWAP2 SWAP1 SWAP2 MSTORE PUSH1 0x60 DUP4 ADD MSTORE PUSH1 0x80 DUP3 ADD MSTORE PUSH1 0xA0 ADD PUSH2 0x250 JUMP JUMPDEST PUSH2 0x26C PUSH2 0x4B1 CALLDATASIZE PUSH1 0x4 PUSH2 0x166C JUMP JUMPDEST PUSH2 0xFA2 JUMP JUMPDEST PUSH2 0x26C PUSH2 0x4C4 CALLDATASIZE PUSH1 0x4 PUSH2 0x166C JUMP JUMPDEST PUSH2 0xFB2 JUMP JUMPDEST PUSH2 0x26C PUSH9 0xA2A15D09519BE00000 DUP2 JUMP JUMPDEST PUSH2 0x26C PUSH8 0x4563918244F40000 DUP2 JUMP JUMPDEST PUSH2 0x26C PUSH2 0x2710 DUP2 JUMP JUMPDEST PUSH2 0x26C PUSH1 0xC8 DUP2 JUMP JUMPDEST PUSH2 0x26C PUSH2 0x507 CALLDATASIZE PUSH1 0x4 PUSH2 0x1642 JUMP JUMPDEST PUSH1 0x19 PUSH1 0x20 SWAP1 DUP2 MSTORE PUSH1 0x0 SWAP3 DUP4 MSTORE PUSH1 0x40 DUP1 DUP5 KECCAK256 SWAP1 SWAP2 MSTORE SWAP1 DUP3 MSTORE SWAP1 KECCAK256 SLOAD DUP2 JUMP JUMPDEST PUSH2 0x1FD PUSH2 0x532 CALLDATASIZE PUSH1 0x4 PUSH2 0x1627 JUMP JUMPDEST PUSH2 0x105D JUMP JUMPDEST PUSH2 0x1FD PUSH2 0x545 CALLDATASIZE PUSH1 0x4 PUSH2 0x1627 JUMP JUMPDEST PUSH2 0x1105 JUMP JUMPDEST PUSH2 0x552 PUSH2 0x1140 JUMP JUMPDEST PUSH1 0x3 DUP1 SLOAD DUP3 ISZERO ISZERO PUSH1 0x1 PUSH1 0xA0 SHL MUL PUSH1 0xFF PUSH1 0xA0 SHL NOT SWAP1 SWAP2 AND OR SWAP1 SSTORE PUSH1 0x40 MLOAD PUSH32 0xE2FB031EE032DC02D8011DC50B816EB450CF856ABD8261680DAC74F72165BD2 SWAP1 PUSH2 0x59F SWAP1 DUP4 ISZERO ISZERO DUP2 MSTORE PUSH1 0x20 ADD SWAP1 JUMP JUMPDEST PUSH1 0x40 MLOAD DUP1 SWAP2 SUB SWAP1 LOG1 POP JUMP JUMPDEST PUSH2 0x5B2 PUSH2 0x1140 JUMP JUMPDEST PUSH1 0x1 PUSH1 0x1 PUSH1 0xA0 SHL SUB DUP2 AND PUSH2 0x605 JUMPI PUSH1 0x40 MLOAD PUSH3 0x461BCD PUSH1 0xE5 SHL DUP2 MSTORE PUSH1 0x20 PUSH1 0x4 DUP3 ADD MSTORE PUSH1 0x15 PUSH1 0x24 DUP3 ADD MSTORE PUSH21 0x496E76616C696420746F6B656E2061646472657373 PUSH1 0x58 SHL PUSH1 0x44 DUP3 ADD MSTORE PUSH1 0x64 ADD JUMPDEST PUSH1 0x40 MLOAD DUP1 SWAP2 SUB SWAP1 REVERT JUMPDEST PUSH1 0x2 DUP1 SLOAD PUSH1 0x1 PUSH1 0x1 PUSH1 0xA0 SHL SUB NOT AND PUSH1 0x1 PUSH1 0x1 PUSH1 0xA0 SHL SUB DUP4 AND SWAP1 DUP2 OR SWAP1 SWAP2 SSTORE PUSH1 0x40 MLOAD PUSH32 0x5BA6B30CD4B2F9E9E67F4FEB9B9DF10D5DA3B057598E6901B217B7D590345E30 SWAP1 PUSH1 0x0 SWAP1 LOG2 POP JUMP JUMPDEST PUSH1 0x1 PUSH1 0x1 PUSH1 0xA0 SHL SUB DUP3 AND PUSH1 0x0 SWAP1 DUP2 MSTORE PUSH1 0x18 PUSH1 0x20 MSTORE PUSH1 0x40 DUP2 KECCAK256 PUSH1 0x5 DUP2 ADD SLOAD DUP3 SWAP2 DUP3 SWAP2 DUP3 SWAP2 DUP3 SWAP2 DUP3 SWAP2 SWAP1 DUP9 LT PUSH2 0x6BD JUMPI PUSH1 0x40 MLOAD PUSH3 0x461BCD PUSH1 0xE5 SHL DUP2 MSTORE PUSH1 0x20 PUSH1 0x4 DUP3 ADD MSTORE PUSH1 0x15 PUSH1 0x24 DUP3 ADD MSTORE PUSH21 0x92DCECC2D8D2C840C8CAE0DEE6D2E840D2DCC8CAF PUSH1 0x5B SHL PUSH1 0x44 DUP3 ADD MSTORE PUSH1 0x64 ADD PUSH2 0x5FC JUMP JUMPDEST PUSH1 0x0 DUP2 PUSH1 0x5 ADD DUP10 DUP2 SLOAD DUP2 LT PUSH2 0x6D4 JUMPI PUSH2 0x6D4 PUSH2 0x1704 JUMP JUMPDEST SWAP1 PUSH1 0x0 MSTORE PUSH1 0x20 PUSH1 0x0 KECCAK256 SWAP1 PUSH1 0x5 MUL ADD SWAP1 POP PUSH1 0x0 PUSH2 0x6F0 DUP12 DUP12 PUSH2 0x116D JUMP JUMPDEST DUP3 SLOAD PUSH1 0x1 DUP5 ADD SLOAD PUSH1 0x2 DUP6 ADD SLOAD PUSH1 0x3 DUP7 ADD SLOAD PUSH1 0x4 SWAP1 SWAP7 ADD SLOAD SWAP3 SWAP16 SWAP2 SWAP15 POP SWAP13 POP SWAP4 SWAP11 POP PUSH1 0xFF AND SWAP9 POP SWAP7 POP SWAP1 SWAP5 POP POP POP POP POP JUMP JUMPDEST PUSH1 0x9 DUP2 PUSH1 0x5 DUP2 LT PUSH2 0x731 JUMPI PUSH1 0x0 DUP1 REVERT JUMPDEST ADD SLOAD SWAP1 POP DUP2 JUMP JUMPDEST PUSH2 0x740 PUSH2 0x12B5 JUMP JUMPDEST PUSH1 0x3 SLOAD PUSH1 0x1 PUSH1 0xA0 SHL SWAP1 DIV PUSH1 0xFF AND ISZERO PUSH2 0x76A JUMPI PUSH1 0x40 MLOAD PUSH3 0x461BCD PUSH1 0xE5 SHL DUP2 MSTORE PUSH1 0x4 ADD PUSH2 0x5FC SWAP1 PUSH2 0x171A JUMP JUMPDEST CALLER PUSH1 0x0 DUP2 DUP2 MSTORE PUSH1 0x18 PUSH1 0x20 MSTORE PUSH1 0x40 DUP2 KECCAK256 SWAP2 PUSH2 0x783 SWAP1 PUSH2 0xD83 JUMP JUMPDEST SWAP1 POP PUSH8 0x4563918244F40000 DUP2 LT ISZERO PUSH2 0x7D8 JUMPI PUSH1 0x40 MLOAD PUSH3 0x461BCD PUSH1 0xE5 SHL DUP2 MSTORE PUSH1 0x20 PUSH1 0x4 DUP3 ADD MSTORE PUSH1 0x18 PUSH1 0x24 DUP3 ADD MSTORE PUSH24 0x10995B1BDDC81B5A5B9A5B5D5B481DDA5D1A191C985DD85B PUSH1 0x42 SHL PUSH1 0x44 DUP3 ADD MSTORE PUSH1 0x64 ADD PUSH2 0x5FC JUMP JUMPDEST PUSH1 0x0 JUMPDEST PUSH1 0x5 DUP4 ADD SLOAD DUP2 LT ISZERO PUSH2 0x922 JUMPI DUP3 PUSH1 0x5 ADD DUP2 DUP2 SLOAD DUP2 LT PUSH2 0x7FC JUMPI PUSH2 0x7FC PUSH2 0x1704 JUMP JUMPDEST PUSH1 0x0 SWAP2 DUP3 MSTORE PUSH1 0x20 SWAP1 SWAP2 KECCAK256 PUSH1 0x4 PUSH1 0x5 SWAP1 SWAP3 MUL ADD ADD SLOAD PUSH1 0xFF AND ISZERO PUSH2 0x910 JUMPI PUSH1 0x0 PUSH2 0x824 CALLER DUP4 PUSH2 0x116D JUMP JUMPDEST SWAP1 POP DUP1 DUP5 PUSH1 0x5 ADD DUP4 DUP2 SLOAD DUP2 LT PUSH2 0x83C JUMPI PUSH2 0x83C PUSH2 0x1704 JUMP JUMPDEST SWAP1 PUSH1 0x0 MSTORE PUSH1 0x20 PUSH1 0x0 KECCAK256 SWAP1 PUSH1 0x5 MUL ADD PUSH1 0x3 ADD PUSH1 0x0 DUP3 DUP3 SLOAD PUSH2 0x85C SWAP2 SWAP1 PUSH2 0x175C JUMP JUMPDEST SWAP3 POP POP DUP2 SWAP1 SSTORE POP PUSH1 0x0 PUSH1 0x64 PUSH1 0xC8 DUP7 PUSH1 0x5 ADD DUP6 DUP2 SLOAD DUP2 LT PUSH2 0x87E JUMPI PUSH2 0x87E PUSH2 0x1704 JUMP JUMPDEST SWAP1 PUSH1 0x0 MSTORE PUSH1 0x20 PUSH1 0x0 KECCAK256 SWAP1 PUSH1 0x5 MUL ADD PUSH1 0x0 ADD SLOAD PUSH2 0x89A SWAP2 SWAP1 PUSH2 0x176F JUMP JUMPDEST PUSH2 0x8A4 SWAP2 SWAP1 PUSH2 0x1786 JUMP JUMPDEST SWAP1 POP DUP1 DUP6 PUSH1 0x5 ADD DUP5 DUP2 SLOAD DUP2 LT PUSH2 0x8BC JUMPI PUSH2 0x8BC PUSH2 0x1704 JUMP JUMPDEST SWAP1 PUSH1 0x0 MSTORE PUSH1 0x20 PUSH1 0x0 KECCAK256 SWAP1 PUSH1 0x5 MUL ADD PUSH1 0x3 ADD SLOAD LT PUSH2 0x90D JUMPI PUSH1 0x0 DUP6 PUSH1 0x5 ADD DUP5 DUP2 SLOAD DUP2 LT PUSH2 0x8EA JUMPI PUSH2 0x8EA PUSH2 0x1704 JUMP JUMPDEST PUSH1 0x0 SWAP2 DUP3 MSTORE PUSH1 0x20 SWAP1 SWAP2 KECCAK256 PUSH1 0x5 SWAP1 SWAP2 MUL ADD PUSH1 0x4 ADD DUP1 SLOAD PUSH1 0xFF NOT AND SWAP2 ISZERO ISZERO SWAP2 SWAP1 SWAP2 OR SWAP1 SSTORE JUMPDEST POP POP JUMPDEST DUP1 PUSH2 0x91A DUP2 PUSH2 0x17A8 JUMP JUMPDEST SWAP2 POP POP PUSH2 0x7DB JUMP JUMPDEST POP DUP1 DUP3 PUSH1 0x2 ADD PUSH1 0x0 DUP3 DUP3 SLOAD PUSH2 0x937 SWAP2 SWAP1 PUSH2 0x175C JUMP JUMPDEST SWAP1 SWAP2 SSTORE POP POP PUSH1 0x2 SLOAD PUSH2 0x953 SWAP1 PUSH1 0x1 PUSH1 0x1 PUSH1 0xA0 SHL SUB AND CALLER DUP4 PUSH2 0x12DF JUMP JUMPDEST PUSH1 0x40 MLOAD DUP2 DUP2 MSTORE CALLER SWAP1 PUSH32 0xFC30CDDEA38E2BF4D6EA7D3F9ED3B6AD7F176419F4963BD81318067A4AEE73FE SWAP1 PUSH1 0x20 ADD JUMPDEST PUSH1 0x40 MLOAD DUP1 SWAP2 SUB SWAP1 LOG2 POP POP PUSH2 0x994 PUSH1 0x1 DUP1 SSTORE JUMP JUMPDEST JUMP JUMPDEST PUSH1 0xE DUP2 PUSH1 0x5 DUP2 LT PUSH2 0x731 JUMPI PUSH1 0x0 DUP1 REVERT JUMPDEST PUSH1 0x4 DUP2 PUSH1 0x5 DUP2 LT PUSH2 0x731 JUMPI PUSH1 0x0 DUP1 REVERT JUMPDEST PUSH2 0x9BE PUSH2 0x15C4 JUMP JUMPDEST PUSH2 0x9C6 PUSH2 0x15C4 JUMP JUMPDEST PUSH1 0x0 JUMPDEST PUSH1 0x5 DUP2 LT ISZERO PUSH2 0xA1F JUMPI PUSH1 0x1 PUSH1 0x1 PUSH1 0xA0 SHL SUB DUP5 AND PUSH1 0x0 SWAP1 DUP2 MSTORE PUSH1 0x19 PUSH1 0x20 SWAP1 DUP2 MSTORE PUSH1 0x40 DUP1 DUP4 KECCAK256 DUP5 DUP5 MSTORE SWAP1 SWAP2 MSTORE SWAP1 KECCAK256 SLOAD DUP3 DUP3 PUSH1 0x5 DUP2 LT PUSH2 0xA08 JUMPI PUSH2 0xA08 PUSH2 0x1704 JUMP JUMPDEST PUSH1 0x20 MUL ADD MSTORE DUP1 PUSH2 0xA17 DUP2 PUSH2 0x17A8 JUMP JUMPDEST SWAP2 POP POP PUSH2 0x9C9 JUMP JUMPDEST POP SWAP3 SWAP2 POP POP JUMP JUMPDEST PUSH2 0xA2E PUSH2 0x1140 JUMP JUMPDEST PUSH2 0xA56 PUSH2 0xA43 PUSH1 0x0 SLOAD PUSH1 0x1 PUSH1 0x1 PUSH1 0xA0 SHL SUB AND SWAP1 JUMP JUMPDEST PUSH1 0x2 SLOAD PUSH1 0x1 PUSH1 0x1 PUSH1 0xA0 SHL SUB AND SWAP1 DUP4 PUSH2 0x12DF JUMP JUMPDEST POP JUMP JUMPDEST PUSH2 0xA61 PUSH2 0x12B5 JUMP JUMPDEST PUSH1 0x3 SLOAD PUSH1 0x1 PUSH1 0xA0 SHL SWAP1 DIV PUSH1 0xFF AND ISZERO PUSH2 0xA8B JUMPI PUSH1 0x40 MLOAD PUSH3 0x461BCD PUSH1 0xE5 SHL DUP2 MSTORE PUSH1 0x4 ADD PUSH2 0x5FC SWAP1 PUSH2 0x171A JUMP JUMPDEST PUSH8 0x4563918244F40000 DUP3 LT ISZERO DUP1 ISZERO PUSH2 0xAAC JUMPI POP PUSH9 0xA2A15D09519BE00000 DUP3 GT ISZERO JUMPDEST PUSH2 0xAF1 JUMPI PUSH1 0x40 MLOAD PUSH3 0x461BCD PUSH1 0xE5 SHL DUP2 MSTORE PUSH1 0x20 PUSH1 0x4 DUP3 ADD MSTORE PUSH1 0x16 PUSH1 0x24 DUP3 ADD MSTORE PUSH22 0x125B9D985B1A590819195C1BDCDA5D08185B5BDD5B9D PUSH1 0x52 SHL PUSH1 0x44 DUP3 ADD MSTORE PUSH1 0x64 ADD PUSH2 0x5FC JUMP JUMPDEST CALLER PUSH1 0x1 PUSH1 0x1 PUSH1 0xA0 SHL SUB DUP3 AND SUB PUSH2 0xB41 JUMPI PUSH1 0x40 MLOAD PUSH3 0x461BCD PUSH1 0xE5 SHL DUP2 MSTORE PUSH1 0x20 PUSH1 0x4 DUP3 ADD MSTORE PUSH1 0x15 PUSH1 0x24 DUP3 ADD MSTORE PUSH21 0x21B0B73737BA103932B332B9103CB7BAB939B2B633 PUSH1 0x59 SHL PUSH1 0x44 DUP3 ADD MSTORE PUSH1 0x64 ADD PUSH2 0x5FC JUMP JUMPDEST PUSH1 0x0 PUSH2 0xB4C DUP4 PUSH2 0xFB2 JUMP JUMPDEST SWAP1 POP PUSH1 0x5 DUP2 LT PUSH2 0xB95 JUMPI PUSH1 0x40 MLOAD PUSH3 0x461BCD PUSH1 0xE5 SHL DUP2 MSTORE PUSH1 0x20 PUSH1 0x4 DUP3 ADD MSTORE PUSH1 0x14 PUSH1 0x24 DUP3 ADD MSTORE PUSH20 0x24B73B30B634B2103830B1B5B0B3B2903A34B2B9 PUSH1 0x61 SHL PUSH1 0x44 DUP3 ADD MSTORE PUSH1 0x64 ADD PUSH2 0x5FC JUMP JUMPDEST CALLER PUSH1 0x0 SWAP1 DUP2 MSTORE PUSH1 0x18 PUSH1 0x20 MSTORE PUSH1 0x40 SWAP1 KECCAK256 DUP1 SLOAD PUSH1 0x1 PUSH1 0x1 PUSH1 0xA0 SHL SUB AND ISZERO DUP1 ISZERO PUSH2 0xBC4 JUMPI POP PUSH1 0x1 PUSH1 0x1 PUSH1 0xA0 SHL SUB DUP4 AND ISZERO ISZERO JUMPDEST DUP1 ISZERO PUSH2 0xBEA JUMPI POP PUSH1 0x1 PUSH1 0x1 PUSH1 0xA0 SHL SUB DUP4 AND PUSH1 0x0 SWAP1 DUP2 MSTORE PUSH1 0x18 PUSH1 0x20 MSTORE PUSH1 0x40 SWAP1 KECCAK256 PUSH1 0x1 ADD SLOAD ISZERO ISZERO JUMPDEST ISZERO PUSH2 0xC09 JUMPI DUP1 SLOAD PUSH1 0x1 PUSH1 0x1 PUSH1 0xA0 SHL SUB NOT AND PUSH1 0x1 PUSH1 0x1 PUSH1 0xA0 SHL SUB DUP5 AND OR DUP2 SSTORE JUMPDEST PUSH1 0x2 SLOAD PUSH2 0xC21 SWAP1 PUSH1 0x1 PUSH1 0x1 PUSH1 0xA0 SHL SUB AND CALLER ADDRESS DUP8 PUSH2 0x1343 JUMP JUMPDEST PUSH1 0x40 DUP1 MLOAD PUSH1 0xA0 DUP2 ADD DUP3 MSTORE DUP6 DUP2 MSTORE PUSH1 0x20 DUP1 DUP3 ADD DUP6 DUP2 MSTORE TIMESTAMP SWAP4 DUP4 ADD SWAP4 DUP5 MSTORE PUSH1 0x0 PUSH1 0x60 DUP5 ADD DUP2 DUP2 MSTORE PUSH1 0x1 PUSH1 0x80 DUP7 ADD DUP2 DUP2 MSTORE PUSH1 0x5 DUP10 DUP2 ADD DUP1 SLOAD DUP1 DUP6 ADD DUP3 SSTORE SWAP1 DUP7 MSTORE SWAP7 DUP6 KECCAK256 SWAP8 MLOAD SWAP7 MUL SWAP1 SWAP7 ADD SWAP5 DUP6 SSTORE SWAP3 MLOAD DUP5 DUP5 ADD SSTORE SWAP5 MLOAD PUSH1 0x2 DUP5 ADD SSTORE SWAP4 MLOAD PUSH1 0x3 DUP4 ADD SSTORE SWAP2 MLOAD PUSH1 0x4 SWAP1 SWAP2 ADD DUP1 SLOAD PUSH1 0xFF NOT AND SWAP2 ISZERO ISZERO SWAP2 SWAP1 SWAP2 OR SWAP1 SSTORE DUP3 ADD DUP1 SLOAD DUP7 SWAP3 SWAP1 PUSH2 0xCA7 SWAP1 DUP5 SWAP1 PUSH2 0x175C JUMP JUMPDEST SWAP1 SWAP2 SSTORE POP POP DUP1 SLOAD PUSH1 0x1 PUSH1 0x1 PUSH1 0xA0 SHL SUB AND ISZERO PUSH2 0xCCB JUMPI PUSH2 0xCC6 CALLER DUP6 PUSH2 0x1382 JUMP JUMPDEST PUSH2 0xD19 JUMP JUMPDEST PUSH1 0x3 SLOAD PUSH1 0x1 PUSH1 0x1 PUSH1 0xA0 SHL SUB AND ISZERO PUSH2 0xD19 JUMPI PUSH1 0x0 PUSH2 0x2710 PUSH2 0xCED DUP7 PUSH2 0xBB8 PUSH2 0x176F JUMP JUMPDEST PUSH2 0xCF7 SWAP2 SWAP1 PUSH2 0x1786 JUMP JUMPDEST PUSH1 0x3 SLOAD PUSH1 0x2 SLOAD SWAP2 SWAP3 POP PUSH2 0xD17 SWAP2 PUSH1 0x1 PUSH1 0x1 PUSH1 0xA0 SHL SUB SWAP1 DUP2 AND SWAP2 AND DUP4 PUSH2 0x12DF JUMP JUMPDEST POP JUMPDEST DUP1 SLOAD PUSH1 0x40 DUP1 MLOAD DUP7 DUP2 MSTORE PUSH1 0x20 DUP2 ADD DUP6 SWAP1 MSTORE PUSH1 0x1 PUSH1 0x1 PUSH1 0xA0 SHL SUB SWAP1 SWAP3 AND SWAP2 CALLER SWAP2 PUSH32 0xA49637E3F6491DE6C2C23C5006BEF69DF603D0DBA9D65C8B756FE46AC29810B9 SWAP2 ADD PUSH1 0x40 MLOAD DUP1 SWAP2 SUB SWAP1 LOG3 POP POP PUSH2 0xD6D PUSH1 0x1 DUP1 SSTORE JUMP JUMPDEST POP POP JUMP JUMPDEST PUSH2 0xD79 PUSH2 0x1140 JUMP JUMPDEST PUSH2 0x994 PUSH1 0x0 PUSH2 0x1503 JUMP JUMPDEST PUSH1 0x1 PUSH1 0x1 PUSH1 0xA0 SHL SUB DUP2 AND PUSH1 0x0 SWAP1 DUP2 MSTORE PUSH1 0x18 PUSH1 0x20 MSTORE PUSH1 0x40 DUP2 KECCAK256 DUP2 DUP1 JUMPDEST PUSH1 0x5 DUP4 ADD SLOAD DUP2 LT ISZERO PUSH2 0xE04 JUMPI DUP3 PUSH1 0x5 ADD DUP2 DUP2 SLOAD DUP2 LT PUSH2 0xDBF JUMPI PUSH2 0xDBF PUSH2 0x1704 JUMP JUMPDEST PUSH1 0x0 SWAP2 DUP3 MSTORE PUSH1 0x20 SWAP1 SWAP2 KECCAK256 PUSH1 0x4 PUSH1 0x5 SWAP1 SWAP3 MUL ADD ADD SLOAD PUSH1 0xFF AND ISZERO PUSH2 0xDF2 JUMPI PUSH2 0xDE5 DUP6 DUP3 PUSH2 0x116D JUMP JUMPDEST PUSH2 0xDEF SWAP1 DUP4 PUSH2 0x175C JUMP JUMPDEST SWAP2 POP JUMPDEST DUP1 PUSH2 0xDFC DUP2 PUSH2 0x17A8 JUMP JUMPDEST SWAP2 POP POP PUSH2 0xD9E JUMP JUMPDEST POP SWAP4 SWAP3 POP POP POP JUMP JUMPDEST PUSH2 0xE14 PUSH2 0x12B5 JUMP JUMPDEST PUSH1 0x3 SLOAD PUSH1 0x1 PUSH1 0xA0 SHL SWAP1 DIV PUSH1 0xFF AND ISZERO PUSH2 0xE3E JUMPI PUSH1 0x40 MLOAD PUSH3 0x461BCD PUSH1 0xE5 SHL DUP2 MSTORE PUSH1 0x4 ADD PUSH2 0x5FC SWAP1 PUSH2 0x171A JUMP JUMPDEST CALLER PUSH1 0x0 SWAP1 DUP2 MSTORE PUSH1 0x18 PUSH1 0x20 MSTORE PUSH1 0x40 SWAP1 KECCAK256 PUSH1 0x3 DUP2 ADD SLOAD PUSH8 0x4563918244F40000 DUP2 LT ISZERO PUSH2 0xEA5 JUMPI PUSH1 0x40 MLOAD PUSH3 0x461BCD PUSH1 0xE5 SHL DUP2 MSTORE PUSH1 0x20 PUSH1 0x4 DUP3 ADD MSTORE PUSH1 0x18 PUSH1 0x24 DUP3 ADD MSTORE PUSH24 0x10995B1BDDC81B5A5B9A5B5D5B481DDA5D1A191C985DD85B PUSH1 0x42 SHL PUSH1 0x44 DUP3 ADD MSTORE PUSH1 0x64 ADD PUSH2 0x5FC JUMP JUMPDEST PUSH1 0x0 PUSH1 0x3 DUP4 ADD SSTORE PUSH1 0x2 SLOAD PUSH2 0xEC3 SWAP1 PUSH1 0x1 PUSH1 0x1 PUSH1 0xA0 SHL SUB AND CALLER DUP4 PUSH2 0x12DF JUMP JUMPDEST PUSH1 0x40 MLOAD DUP2 DUP2 MSTORE CALLER SWAP1 PUSH32 0x8D38441DEB8D3C27D5DDAA8308892EDABF1C6556C655494AC56AB41F7D852208 SWAP1 PUSH1 0x20 ADD PUSH2 0x981 JUMP JUMPDEST PUSH2 0xEFD PUSH2 0x1140 JUMP JUMPDEST PUSH1 0x5 DUP3 LT PUSH2 0xF3C JUMPI PUSH1 0x40 MLOAD PUSH3 0x461BCD PUSH1 0xE5 SHL DUP2 MSTORE PUSH1 0x20 PUSH1 0x4 DUP3 ADD MSTORE PUSH1 0xC PUSH1 0x24 DUP3 ADD MSTORE PUSH12 0x24B73B30B634B2103A34B2B9 PUSH1 0xA1 SHL PUSH1 0x44 DUP3 ADD MSTORE PUSH1 0x64 ADD PUSH2 0x5FC JUMP JUMPDEST PUSH1 0x0 DUP2 GT DUP1 ISZERO PUSH2 0xF4E JUMPI POP PUSH2 0x1F4 DUP2 GT ISZERO JUMPDEST PUSH2 0xF88 JUMPI PUSH1 0x40 MLOAD PUSH3 0x461BCD PUSH1 0xE5 SHL DUP2 MSTORE PUSH1 0x20 PUSH1 0x4 DUP3 ADD MSTORE PUSH1 0xB PUSH1 0x24 DUP3 ADD MSTORE PUSH11 0x496E76616C696420524F49 PUSH1 0xA8 SHL PUSH1 0x44 DUP3 ADD MSTORE PUSH1 0x64 ADD PUSH2 0x5FC JUMP JUMPDEST DUP1 PUSH1 0x4 DUP4 PUSH1 0x5 DUP2 LT PUSH2 0xF9C JUMPI PUSH2 0xF9C PUSH2 0x1704 JUMP JUMPDEST ADD SSTORE POP POP JUMP JUMPDEST PUSH1 0x13 DUP2 PUSH1 0x5 DUP2 LT PUSH2 0x731 JUMPI PUSH1 0x0 DUP1 REVERT JUMPDEST PUSH1 0x0 DUP1 JUMPDEST PUSH1 0x5 DUP2 LT ISZERO PUSH2 0x1014 JUMPI PUSH1 0x9 DUP2 PUSH1 0x5 DUP2 LT PUSH2 0xFD2 JUMPI PUSH2 0xFD2 PUSH2 0x1704 JUMP JUMPDEST ADD SLOAD DUP4 LT ISZERO DUP1 ISZERO PUSH2 0xFF7 JUMPI POP PUSH1 0xE DUP2 PUSH1 0x5 DUP2 LT PUSH2 0xFF1 JUMPI PUSH2 0xFF1 PUSH2 0x1704 JUMP JUMPDEST ADD SLOAD DUP4 GT ISZERO JUMPDEST ISZERO PUSH2 0x1002 JUMPI SWAP3 SWAP2 POP POP JUMP JUMPDEST DUP1 PUSH2 0x100C DUP2 PUSH2 0x17A8 JUMP JUMPDEST SWAP2 POP POP PUSH2 0xFB6 JUMP JUMPDEST POP PUSH1 0x40 MLOAD PUSH3 0x461BCD PUSH1 0xE5 SHL DUP2 MSTORE PUSH1 0x20 PUSH1 0x4 DUP3 ADD MSTORE PUSH1 0x1F PUSH1 0x24 DUP3 ADD MSTORE PUSH32 0x416D6F756E7420646F6573206E6F742066697420616E79207061636B61676500 PUSH1 0x44 DUP3 ADD MSTORE PUSH1 0x64 ADD PUSH2 0x5FC JUMP JUMPDEST PUSH2 0x1065 PUSH2 0x1140 JUMP JUMPDEST PUSH1 0x1 PUSH1 0x1 PUSH1 0xA0 SHL SUB DUP2 AND PUSH2 0x10BB JUMPI PUSH1 0x40 MLOAD PUSH3 0x461BCD PUSH1 0xE5 SHL DUP2 MSTORE PUSH1 0x20 PUSH1 0x4 DUP3 ADD MSTORE PUSH1 0x18 PUSH1 0x24 DUP3 ADD MSTORE PUSH32 0x496E76616C696420747265617375727920616464726573730000000000000000 PUSH1 0x44 DUP3 ADD MSTORE PUSH1 0x64 ADD PUSH2 0x5FC JUMP JUMPDEST PUSH1 0x3 DUP1 SLOAD PUSH1 0x1 PUSH1 0x1 PUSH1 0xA0 SHL SUB NOT AND PUSH1 0x1 PUSH1 0x1 PUSH1 0xA0 SHL SUB DUP4 AND SWAP1 DUP2 OR SWAP1 SWAP2 SSTORE PUSH1 0x40 MLOAD PUSH32 0x7DAE230F18360D76A040C81F050AA14EB9D6DC7901B20FC5D855E2A20FE814D1 SWAP1 PUSH1 0x0 SWAP1 LOG2 POP JUMP JUMPDEST PUSH2 0x110D PUSH2 0x1140 JUMP JUMPDEST PUSH1 0x1 PUSH1 0x1 PUSH1 0xA0 SHL SUB DUP2 AND PUSH2 0x1137 JUMPI PUSH1 0x40 MLOAD PUSH4 0x1E4FBDF7 PUSH1 0xE0 SHL DUP2 MSTORE PUSH1 0x0 PUSH1 0x4 DUP3 ADD MSTORE PUSH1 0x24 ADD PUSH2 0x5FC JUMP JUMPDEST PUSH2 0xA56 DUP2 PUSH2 0x1503 JUMP JUMPDEST PUSH1 0x0 SLOAD PUSH1 0x1 PUSH1 0x1 PUSH1 0xA0 SHL SUB AND CALLER EQ PUSH2 0x994 JUMPI PUSH1 0x40 MLOAD PUSH4 0x118CDAA7 PUSH1 0xE0 SHL DUP2 MSTORE CALLER PUSH1 0x4 DUP3 ADD MSTORE PUSH1 0x24 ADD PUSH2 0x5FC JUMP JUMPDEST PUSH1 0x1 PUSH1 0x1 PUSH1 0xA0 SHL SUB DUP3 AND PUSH1 0x0 SWAP1 DUP2 MSTORE PUSH1 0x18 PUSH1 0x20 MSTORE PUSH1 0x40 DUP2 KECCAK256 PUSH1 0x5 DUP2 ADD DUP1 SLOAD DUP4 SWAP2 SWAP1 DUP6 SWAP1 DUP2 LT PUSH2 0x119E JUMPI PUSH2 0x119E PUSH2 0x1704 JUMP JUMPDEST PUSH1 0x0 SWAP2 DUP3 MSTORE PUSH1 0x20 SWAP1 SWAP2 KECCAK256 PUSH1 0x5 SWAP1 SWAP2 MUL ADD PUSH1 0x4 DUP2 ADD SLOAD SWAP1 SWAP2 POP PUSH1 0xFF AND PUSH2 0x11C8 JUMPI PUSH1 0x0 SWAP3 POP POP POP PUSH2 0x12AF JUMP JUMPDEST PUSH1 0x0 DUP2 PUSH1 0x2 ADD SLOAD TIMESTAMP PUSH2 0x11DA SWAP2 SWAP1 PUSH2 0x17C1 JUMP JUMPDEST SWAP1 POP PUSH1 0x0 PUSH1 0x4 DUP4 PUSH1 0x1 ADD SLOAD PUSH1 0x5 DUP2 LT PUSH2 0x11F5 JUMPI PUSH2 0x11F5 PUSH2 0x1704 JUMP JUMPDEST ADD SLOAD SWAP1 POP PUSH1 0x0 PUSH2 0x120A PUSH2 0x2710 PUSH3 0x15180 PUSH2 0x176F JUMP JUMPDEST DUP5 SLOAD DUP5 SWAP1 PUSH2 0x1219 SWAP1 DUP6 SWAP1 PUSH2 0x176F JUMP JUMPDEST PUSH2 0x1223 SWAP2 SWAP1 PUSH2 0x176F JUMP JUMPDEST PUSH2 0x122D SWAP2 SWAP1 PUSH2 0x1786 JUMP JUMPDEST SWAP1 POP PUSH1 0x0 PUSH1 0x64 PUSH1 0xC8 DUP7 PUSH1 0x0 ADD SLOAD PUSH2 0x1244 SWAP2 SWAP1 PUSH2 0x176F JUMP JUMPDEST PUSH2 0x124E SWAP2 SWAP1 PUSH2 0x1786 JUMP JUMPDEST PUSH1 0x3 DUP7 ADD SLOAD SWAP1 SWAP2 POP DUP2 PUSH2 0x1261 DUP3 DUP6 PUSH2 0x175C JUMP JUMPDEST GT ISZERO PUSH2 0x128D JUMPI DUP1 DUP3 GT PUSH2 0x1275 JUMPI PUSH1 0x0 PUSH2 0x127F JUMP JUMPDEST PUSH2 0x127F DUP2 DUP4 PUSH2 0x17C1 JUMP JUMPDEST SWAP8 POP POP POP POP POP POP POP POP PUSH2 0x12AF JUMP JUMPDEST DUP1 DUP4 GT PUSH2 0x129B JUMPI PUSH1 0x0 PUSH2 0x12A5 JUMP JUMPDEST PUSH2 0x12A5 DUP2 DUP5 PUSH2 0x17C1 JUMP JUMPDEST SWAP8 POP POP POP POP POP POP POP POP JUMPDEST SWAP3 SWAP2 POP POP JUMP JUMPDEST PUSH1 0x2 PUSH1 0x1 SLOAD SUB PUSH2 0x12D8 JUMPI PUSH1 0x40 MLOAD PUSH4 0x3EE5AEB5 PUSH1 0xE0 SHL DUP2 MSTORE PUSH1 0x4 ADD PUSH1 0x40 MLOAD DUP1 SWAP2 SUB SWAP1 REVERT JUMPDEST PUSH1 0x2 PUSH1 0x1 SSTORE JUMP JUMPDEST PUSH1 0x40 MLOAD PUSH1 0x1 PUSH1 0x1 PUSH1 0xA0 SHL SUB DUP4 DUP2 AND PUSH1 0x24 DUP4 ADD MSTORE PUSH1 0x44 DUP3 ADD DUP4 SWAP1 MSTORE PUSH2 0x133E SWAP2 DUP6 SWAP2 DUP3 AND SWAP1 PUSH4 0xA9059CBB SWAP1 PUSH1 0x64 ADD JUMPDEST PUSH1 0x40 MLOAD PUSH1 0x20 DUP2 DUP4 SUB SUB DUP2 MSTORE SWAP1 PUSH1 0x40 MSTORE SWAP2 POP PUSH1 0xE0 SHL PUSH1 0x20 DUP3 ADD DUP1 MLOAD PUSH1 0x1 PUSH1 0x1 PUSH1 0xE0 SHL SUB DUP4 DUP2 DUP4 AND OR DUP4 MSTORE POP POP POP POP PUSH2 0x1553 JUMP JUMPDEST POP POP POP JUMP JUMPDEST PUSH1 0x40 MLOAD PUSH1 0x1 PUSH1 0x1 PUSH1 0xA0 SHL SUB DUP5 DUP2 AND PUSH1 0x24 DUP4 ADD MSTORE DUP4 DUP2 AND PUSH1 0x44 DUP4 ADD MSTORE PUSH1 0x64 DUP3 ADD DUP4 SWAP1 MSTORE PUSH2 0x137C SWAP2 DUP7 SWAP2 DUP3 AND SWAP1 PUSH4 0x23B872DD SWAP1 PUSH1 0x84 ADD PUSH2 0x130C JUMP JUMPDEST POP POP POP POP JUMP JUMPDEST PUSH1 0x1 PUSH1 0x1 PUSH1 0xA0 SHL SUB DUP1 DUP4 AND PUSH1 0x0 SWAP1 DUP2 MSTORE PUSH1 0x18 PUSH1 0x20 MSTORE PUSH1 0x40 DUP2 KECCAK256 SLOAD SWAP1 SWAP2 AND SWAP1 JUMPDEST PUSH1 0x5 DUP2 LT DUP1 ISZERO PUSH2 0x13B9 JUMPI POP PUSH1 0x1 PUSH1 0x1 PUSH1 0xA0 SHL SUB DUP3 AND ISZERO ISZERO JUMPDEST ISZERO PUSH2 0x137C JUMPI PUSH1 0x0 PUSH2 0x2710 PUSH1 0x13 DUP4 PUSH1 0x5 DUP2 LT PUSH2 0x13D6 JUMPI PUSH2 0x13D6 PUSH2 0x1704 JUMP JUMPDEST ADD SLOAD PUSH2 0x13E2 SWAP1 DUP7 PUSH2 0x176F JUMP JUMPDEST PUSH2 0x13EC SWAP2 SWAP1 PUSH2 0x1786 JUMP JUMPDEST PUSH1 0x1 PUSH1 0x1 PUSH1 0xA0 SHL SUB DUP5 AND PUSH1 0x0 SWAP1 DUP2 MSTORE PUSH1 0x18 PUSH1 0x20 MSTORE PUSH1 0x40 DUP2 KECCAK256 PUSH1 0x3 ADD DUP1 SLOAD SWAP3 SWAP4 POP DUP4 SWAP3 SWAP1 SWAP2 SWAP1 PUSH2 0x141C SWAP1 DUP5 SWAP1 PUSH2 0x175C JUMP JUMPDEST SWAP1 SWAP2 SSTORE POP POP PUSH1 0x1 PUSH1 0x1 PUSH1 0xA0 SHL SUB DUP4 AND PUSH1 0x0 SWAP1 DUP2 MSTORE PUSH1 0x18 PUSH1 0x20 MSTORE PUSH1 0x40 DUP2 KECCAK256 PUSH1 0x4 ADD DUP1 SLOAD SWAP2 PUSH2 0x1448 DUP4 PUSH2 0x17A8 JUMP JUMPDEST SWAP1 SWAP2 SSTORE POP POP PUSH1 0x1 PUSH1 0x1 PUSH1 0xA0 SHL SUB DUP4 AND PUSH1 0x0 SWAP1 DUP2 MSTORE PUSH1 0x19 PUSH1 0x20 SWAP1 DUP2 MSTORE PUSH1 0x40 DUP1 DUP4 KECCAK256 DUP6 DUP5 MSTORE SWAP1 SWAP2 MSTORE DUP2 KECCAK256 DUP1 SLOAD SWAP2 PUSH2 0x147C DUP4 PUSH2 0x17A8 JUMP JUMPDEST SWAP1 SWAP2 SSTORE POP POP PUSH1 0x1 PUSH1 0x1 PUSH1 0xA0 SHL SUB DUP1 DUP7 AND SWAP1 DUP5 AND PUSH32 0x65DB98422E8B7340E0D6DFA99BBADD4BA95A51FEFAFD8F0E1CBBB2E819429A42 PUSH2 0x14BB DUP6 PUSH1 0x1 PUSH2 0x175C JUMP JUMPDEST PUSH1 0x40 DUP1 MLOAD SWAP2 DUP3 MSTORE PUSH1 0x20 DUP3 ADD DUP7 SWAP1 MSTORE ADD PUSH1 0x40 MLOAD DUP1 SWAP2 SUB SWAP1 LOG3 POP PUSH1 0x1 PUSH1 0x1 PUSH1 0xA0 SHL SUB SWAP2 DUP3 AND PUSH1 0x0 SWAP1 DUP2 MSTORE PUSH1 0x18 PUSH1 0x20 MSTORE PUSH1 0x40 SWAP1 KECCAK256 SLOAD SWAP1 SWAP2 AND SWAP1 DUP1 PUSH2 0x14FB DUP2 PUSH2 0x17A8 JUMP JUMPDEST SWAP2 POP POP PUSH2 0x13A1 JUMP JUMPDEST PUSH1 0x0 DUP1 SLOAD PUSH1 0x1 PUSH1 0x1 PUSH1 0xA0 SHL SUB DUP4 DUP2 AND PUSH1 0x1 PUSH1 0x1 PUSH1 0xA0 SHL SUB NOT DUP4 AND DUP2 OR DUP5 SSTORE PUSH1 0x40 MLOAD SWAP2 SWAP1 SWAP3 AND SWAP3 DUP4 SWAP2 PUSH32 0x8BE0079C531659141344CD1FD0A4F28419497F9722A3DAAFE3B4186F6B6457E0 SWAP2 SWAP1 LOG3 POP POP JUMP JUMPDEST PUSH1 0x0 DUP1 PUSH1 0x20 PUSH1 0x0 DUP5 MLOAD PUSH1 0x20 DUP7 ADD PUSH1 0x0 DUP9 GAS CALL DUP1 PUSH2 0x1576 JUMPI PUSH1 0x40 MLOAD RETURNDATASIZE PUSH1 0x0 DUP3 RETURNDATACOPY RETURNDATASIZE DUP2 REVERT JUMPDEST POP POP PUSH1 0x0 MLOAD RETURNDATASIZE SWAP2 POP DUP2 ISZERO PUSH2 0x158E JUMPI DUP1 PUSH1 0x1 EQ ISZERO PUSH2 0x159B JUMP JUMPDEST PUSH1 0x1 PUSH1 0x1 PUSH1 0xA0 SHL SUB DUP5 AND EXTCODESIZE ISZERO JUMPDEST ISZERO PUSH2 0x137C JUMPI PUSH1 0x40 MLOAD PUSH4 0x5274AFE7 PUSH1 0xE0 SHL DUP2 MSTORE PUSH1 0x1 PUSH1 0x1 PUSH1 0xA0 SHL SUB DUP6 AND PUSH1 0x4 DUP3 ADD MSTORE PUSH1 0x24 ADD PUSH2 0x5FC JUMP JUMPDEST PUSH1 0x40 MLOAD DUP1 PUSH1 0xA0 ADD PUSH1 0x40 MSTORE DUP1 PUSH1 0x5 SWAP1 PUSH1 0x20 DUP3 MUL DUP1 CALLDATASIZE DUP4 CALLDATACOPY POP SWAP2 SWAP3 SWAP2 POP POP JUMP JUMPDEST PUSH1 0x0 PUSH1 0x20 DUP3 DUP5 SUB SLT ISZERO PUSH2 0x15F4 JUMPI PUSH1 0x0 DUP1 REVERT JUMPDEST DUP2 CALLDATALOAD DUP1 ISZERO ISZERO DUP2 EQ PUSH2 0x1604 JUMPI PUSH1 0x0 DUP1 REVERT JUMPDEST SWAP4 SWAP3 POP POP POP JUMP JUMPDEST DUP1 CALLDATALOAD PUSH1 0x1 PUSH1 0x1 PUSH1 0xA0 SHL SUB DUP2 AND DUP2 EQ PUSH2 0x1622 JUMPI PUSH1 0x0 DUP1 REVERT JUMPDEST SWAP2 SWAP1 POP JUMP JUMPDEST PUSH1 0x0 PUSH1 0x20 DUP3 DUP5 SUB SLT ISZERO PUSH2 0x1639 JUMPI PUSH1 0x0 DUP1 REVERT JUMPDEST PUSH2 0x1604 DUP3 PUSH2 0x160B JUMP JUMPDEST PUSH1 0x0 DUP1 PUSH1 0x40 DUP4 DUP6 SUB SLT ISZERO PUSH2 0x1655 JUMPI PUSH1 0x0 DUP1 REVERT JUMPDEST PUSH2 0x165E DUP4 PUSH2 0x160B JUMP JUMPDEST SWAP5 PUSH1 0x20 SWAP4 SWAP1 SWAP4 ADD CALLDATALOAD SWAP4 POP POP POP JUMP JUMPDEST PUSH1 0x0 PUSH1 0x20 DUP3 DUP5 SUB SLT ISZERO PUSH2 0x167E JUMPI PUSH1 0x0 DUP1 REVERT JUMPDEST POP CALLDATALOAD SWAP2 SWAP1 POP JUMP JUMPDEST PUSH1 0xA0 DUP2 ADD DUP2 DUP4 PUSH1 0x0 JUMPDEST PUSH1 0x5 DUP2 LT ISZERO PUSH2 0x16AD JUMPI DUP2 MLOAD DUP4 MSTORE PUSH1 0x20 SWAP3 DUP4 ADD SWAP3 SWAP1 SWAP2 ADD SWAP1 PUSH1 0x1 ADD PUSH2 0x168E JUMP JUMPDEST POP POP POP SWAP3 SWAP2 POP POP JUMP JUMPDEST PUSH1 0x0 DUP1 PUSH1 0x40 DUP4 DUP6 SUB SLT ISZERO PUSH2 0x16C9 JUMPI PUSH1 0x0 DUP1 REVERT JUMPDEST DUP3 CALLDATALOAD SWAP2 POP PUSH2 0x16D9 PUSH1 0x20 DUP5 ADD PUSH2 0x160B JUMP JUMPDEST SWAP1 POP SWAP3 POP SWAP3 SWAP1 POP JUMP JUMPDEST PUSH1 0x0 DUP1 PUSH1 0x40 DUP4 DUP6 SUB SLT ISZERO PUSH2 0x16F5 JUMPI PUSH1 0x0 DUP1 REVERT JUMPDEST POP POP DUP1 CALLDATALOAD SWAP3 PUSH1 0x20 SWAP1 SWAP2 ADD CALLDATALOAD SWAP2 POP JUMP JUMPDEST PUSH4 0x4E487B71 PUSH1 0xE0 SHL PUSH1 0x0 MSTORE PUSH1 0x32 PUSH1 0x4 MSTORE PUSH1 0x24 PUSH1 0x0 REVERT JUMPDEST PUSH1 0x20 DUP1 DUP3 MSTORE PUSH1 0x12 SWAP1 DUP3 ADD MSTORE PUSH18 0x10DBDB9D1C9858DD081A5CC81C185D5CD959 PUSH1 0x72 SHL PUSH1 0x40 DUP3 ADD MSTORE PUSH1 0x60 ADD SWAP1 JUMP JUMPDEST PUSH4 0x4E487B71 PUSH1 0xE0 SHL PUSH1 0x0 MSTORE PUSH1 0x11 PUSH1 0x4 MSTORE PUSH1 0x24 PUSH1 0x0 REVERT JUMPDEST DUP1 DUP3 ADD DUP1 DUP3 GT ISZERO PUSH2 0x12AF JUMPI PUSH2 0x12AF PUSH2 0x1746 JUMP JUMPDEST DUP1 DUP3 MUL DUP2 ISZERO DUP3 DUP3 DIV DUP5 EQ OR PUSH2 0x12AF JUMPI PUSH2 0x12AF PUSH2 0x1746 JUMP JUMPDEST PUSH1 0x0 DUP3 PUSH2 0x17A3 JUMPI PUSH4 0x4E487B71 PUSH1 0xE0 SHL PUSH1 0x0 MSTORE PUSH1 0x12 PUSH1 0x4 MSTORE PUSH1 0x24 PUSH1 0x0 REVERT JUMPDEST POP DIV SWAP1 JUMP JUMPDEST PUSH1 0x0 PUSH1 0x1 DUP3 ADD PUSH2 0x17BA JUMPI PUSH2 0x17BA PUSH2 0x1746 JUMP JUMPDEST POP PUSH1 0x1 ADD SWAP1 JUMP JUMPDEST DUP2 DUP2 SUB DUP2 DUP2 GT ISZERO PUSH2 0x12AF JUMPI PUSH2 0x12AF PUSH2 0x1746 JUMP INVALID LOG2 PUSH5 0x6970667358 0x22 SLT KECCAK256 0xC6 BASEFEE PUSH10 0x6A27E18CD73DB800857B EXTCODESIZE SELFDESTRUCT 0x1F 0xC7 CALLDATALOAD 0x1E LOG1 0xA9 0x24 0x24 0xEC 0xD6 0xFB CALLDATASIZE ADDRESS 0xDE PUSH19 0x5C1964736F6C63430008140033000000000000 "},"methodIdentifiers":{"BASIS_POINTS()":"e1f1c4a7","MAX_DEPOSIT()":"dd5967c3","MIN_DEPOSIT()":"e1e158a5","MIN_WITHDRAW()":"fbc45f7f","SECONDS_PER_DAY()":"74f0314f","TOTAL_RETURN_CAP()":"e8e97aab","claimRewards()":"372500ab","dailyROI(uint256)":"447a0129","deposit(uint256,address)":"6e553f65","emergencyWithdraw(uint256)":"5312ea8e","getAvailableRewards(address)":"873e31fa","getDeposit(address,uint256)":"2726b506","getPackageTier(uint256)":"cae82e2f","getReferralsByLevel(address)":"522e8847","getUserInfo(address)":"6386c1c7","owner()":"8da5cb5b","packageMax(uint256)":"420a28cc","packageMin(uint256)":"2f8045bb","paused()":"5c975abb","referralPercentages(uint256)":"b662abf5","referralsByLevel(address,uint256)":"eea3b921","renounceOwnership()":"715018a6","setDailyROI(uint256,uint256)":"a72c9e80","setPaused(bool)":"16c38b3c","setStakingToken(address)":"1e9b12ef","setTreasury(address)":"f0f44260","stakingToken()":"72f702f3","transferOwnership(address)":"f2fde38b","treasury()":"61d027b3","users(address)":"a87430ba","withdrawReferral()":"9ea0e074"}}}}}