{
  "_format": "hh-sol-artifact-1",
  "contractName": "InvestmentDApp",
  "sourceName": "contracts/InvestmentDApp.sol",
  "abi": [
    {
      "inputs": [
        {
          "internalType": "address",
          "name": "_stakingToken",
          "type": "address"
        },
        {
          "internalType": "address",
          "name": "_treasury",
          "type": "address"
        }
      ],
      "stateMutability": "nonpayable",
      "type": "constructor"
    },
    {
      "inputs": [
        {
          "internalType": "address",
          "name": "owner",
          "type": "address"
        }
      ],
      "name": "OwnableInvalidOwner",
      "type": "error"
    },
    {
      "inputs": [
        {
          "internalType": "address",
          "name": "account",
          "type": "address"
        }
      ],
      "name": "OwnableUnauthorizedAccount",
      "type": "error"
    },
    {
      "inputs": [],
      "name": "ReentrancyGuardReentrantCall",
      "type": "error"
    },
    {
      "inputs": [
        {
          "internalType": "address",
          "name": "token",
          "type": "address"
        }
      ],
      "name": "SafeERC20FailedOperation",
      "type": "error"
    },
    {
      "anonymous": false,
      "inputs": [
        {
          "indexed": true,
          "internalType": "address",
          "name": "user",
          "type": "address"
        },
        {
          "indexed": false,
          "internalType": "uint256",
          "name": "amount",
          "type": "uint256"
        },
        {
          "indexed": false,
          "internalType": "uint256",
          "name": "packageTier",
          "type": "uint256"
        },
        {
          "indexed": true,
          "internalType": "address",
          "name": "referrer",
          "type": "address"
        }
      ],
      "name": "Deposited",
      "type": "event"
    },
    {
      "anonymous": false,
      "inputs": [
        {
          "indexed": true,
          "internalType": "address",
          "name": "previousOwner",
          "type": "address"
        },
        {
          "indexed": true,
          "internalType": "address",
          "name": "newOwner",
          "type": "address"
        }
      ],
      "name": "OwnershipTransferred",
      "type": "event"
    },
    {
      "anonymous": false,
      "inputs": [
        {
          "indexed": false,
          "internalType": "bool",
          "name": "paused",
          "type": "bool"
        }
      ],
      "name": "Paused",
      "type": "event"
    },
    {
      "anonymous": false,
      "inputs": [
        {
          "indexed": true,
          "internalType": "address",
          "name": "referrer",
          "type": "address"
        },
        {
          "indexed": true,
          "internalType": "address",
          "name": "referee",
          "type": "address"
        },
        {
          "indexed": false,
          "internalType": "uint256",
          "name": "level",
          "type": "uint256"
        },
        {
          "indexed": false,
          "internalType": "uint256",
          "name": "amount",
          "type": "uint256"
        }
      ],
      "name": "ReferralPaid",
      "type": "event"
    },
    {
      "anonymous": false,
      "inputs": [
        {
          "indexed": true,
          "internalType": "address",
          "name": "user",
          "type": "address"
        },
        {
          "indexed": false,
          "internalType": "uint256",
          "name": "amount",
          "type": "uint256"
        }
      ],
      "name": "ReferralWithdrawn",
      "type": "event"
    },
    {
      "anonymous": false,
      "inputs": [
        {
          "indexed": true,
          "internalType": "address",
          "name": "user",
          "type": "address"
        },
        {
          "indexed": false,
          "internalType": "uint256",
          "name": "amount",
          "type": "uint256"
        }
      ],
      "name": "RewardsClaimed",
      "type": "event"
    },
    {
      "anonymous": false,
      "inputs": [
        {
          "indexed": true,
          "internalType": "address",
          "name": "newToken",
          "type": "address"
        }
      ],
      "name": "TokenUpdated",
      "type": "event"
    },
    {
      "anonymous": false,
      "inputs": [
        {
          "indexed": true,
          "internalType": "address",
          "name": "newTreasury",
          "type": "address"
        }
      ],
      "name": "TreasuryUpdated",
      "type": "event"
    },
    {
      "inputs": [],
      "name": "BASIS_POINTS",
      "outputs": [
        {
          "internalType": "uint256",
          "name": "",
          "type": "uint256"
        }
      ],
      "stateMutability": "view",
      "type": "function"
    },
    {
      "inputs": [],
      "name": "MAX_DEPOSIT",
      "outputs": [
        {
          "internalType": "uint256",
          "name": "",
          "type": "uint256"
        }
      ],
      "stateMutability": "view",
      "type": "function"
    },
    {
      "inputs": [],
      "name": "MIN_DEPOSIT",
      "outputs": [
        {
          "internalType": "uint256",
          "name": "",
          "type": "uint256"
        }
      ],
      "stateMutability": "view",
      "type": "function"
    },
    {
      "inputs": [],
      "name": "MIN_WITHDRAW",
      "outputs": [
        {
          "internalType": "uint256",
          "name": "",
          "type": "uint256"
        }
      ],
      "stateMutability": "view",
      "type": "function"
    },
    {
      "inputs": [],
      "name": "SECONDS_PER_DAY",
      "outputs": [
        {
          "internalType": "uint256",
          "name": "",
          "type": "uint256"
        }
      ],
      "stateMutability": "view",
      "type": "function"
    },
    {
      "inputs": [],
      "name": "TOTAL_RETURN_CAP",
      "outputs": [
        {
          "internalType": "uint256",
          "name": "",
          "type": "uint256"
        }
      ],
      "stateMutability": "view",
      "type": "function"
    },
    {
      "inputs": [],
      "name": "claimRewards",
      "outputs": [],
      "stateMutability": "nonpayable",
      "type": "function"
    },
    {
      "inputs": [
        {
          "internalType": "uint256",
          "name": "",
          "type": "uint256"
        }
      ],
      "name": "dailyROI",
      "outputs": [
        {
          "internalType": "uint256",
          "name": "",
          "type": "uint256"
        }
      ],
      "stateMutability": "view",
      "type": "function"
    },
    {
      "inputs": [
        {
          "internalType": "uint256",
          "name": "amount",
          "type": "uint256"
        },
        {
          "internalType": "address",
          "name": "referrer",
          "type": "address"
        }
      ],
      "name": "deposit",
      "outputs": [],
      "stateMutability": "nonpayable",
      "type": "function"
    },
    {
      "inputs": [
        {
          "internalType": "uint256",
          "name": "amount",
          "type": "uint256"
        }
      ],
      "name": "emergencyWithdraw",
      "outputs": [],
      "stateMutability": "nonpayable",
      "type": "function"
    },
    {
      "inputs": [
        {
          "internalType": "address",
          "name": "userAddress",
          "type": "address"
        }
      ],
      "name": "getAvailableRewards",
      "outputs": [
        {
          "internalType": "uint256",
          "name": "",
          "type": "uint256"
        }
      ],
      "stateMutability": "view",
      "type": "function"
    },
    {
      "inputs": [
        {
          "internalType": "address",
          "name": "userAddress",
          "type": "address"
        },
        {
          "internalType": "uint256",
          "name": "depositIndex",
          "type": "uint256"
        }
      ],
      "name": "getDeposit",
      "outputs": [
        {
          "internalType": "uint256",
          "name": "amount",
          "type": "uint256"
        },
        {
          "internalType": "uint256",
          "name": "packageTier",
          "type": "uint256"
        },
        {
          "internalType": "uint256",
          "name": "startTime",
          "type": "uint256"
        },
        {
          "internalType": "uint256",
          "name": "totalClaimed",
          "type": "uint256"
        },
        {
          "internalType": "bool",
          "name": "active",
          "type": "bool"
        },
        {
          "internalType": "uint256",
          "name": "availableRewards",
          "type": "uint256"
        }
      ],
      "stateMutability": "view",
      "type": "function"
    },
    {
      "inputs": [
        {
          "internalType": "uint256",
          "name": "amount",
          "type": "uint256"
        }
      ],
      "name": "getPackageTier",
      "outputs": [
        {
          "internalType": "uint256",
          "name": "",
          "type": "uint256"
        }
      ],
      "stateMutability": "view",
      "type": "function"
    },
    {
      "inputs": [
        {
          "internalType": "address",
          "name": "userAddress",
          "type": "address"
        }
      ],
      "name": "getReferralsByLevel",
      "outputs": [
        {
          "internalType": "uint256[5]",
          "name": "",
          "type": "uint256[5]"
        }
      ],
      "stateMutability": "view",
      "type": "function"
    },
    {
      "inputs": [
        {
          "internalType": "address",
          "name": "userAddress",
          "type": "address"
        }
      ],
      "name": "getUserInfo",
      "outputs": [
        {
          "internalType": "address",
          "name": "referrer",
          "type": "address"
        },
        {
          "internalType": "uint256",
          "name": "totalInvested",
          "type": "uint256"
        },
        {
          "internalType": "uint256",
          "name": "totalWithdrawn",
          "type": "uint256"
        },
        {
          "internalType": "uint256",
          "name": "referralBalance",
          "type": "uint256"
        },
        {
          "internalType": "uint256",
          "name": "totalReferrals",
          "type": "uint256"
        },
        {
          "internalType": "uint256",
          "name": "depositCount",
          "type": "uint256"
        }
      ],
      "stateMutability": "view",
      "type": "function"
    },
    {
      "inputs": [],
      "name": "owner",
      "outputs": [
        {
          "internalType": "address",
          "name": "",
          "type": "address"
        }
      ],
      "stateMutability": "view",
      "type": "function"
    },
    {
      "inputs": [
        {
          "internalType": "uint256",
          "name": "",
          "type": "uint256"
        }
      ],
      "name": "packageMax",
      "outputs": [
        {
          "internalType": "uint256",
          "name": "",
          "type": "uint256"
        }
      ],
      "stateMutability": "view",
      "type": "function"
    },
    {
      "inputs": [
        {
          "internalType": "uint256",
          "name": "",
          "type": "uint256"
        }
      ],
      "name": "packageMin",
      "outputs": [
        {
          "internalType": "uint256",
          "name": "",
          "type": "uint256"
        }
      ],
      "stateMutability": "view",
      "type": "function"
    },
    {
      "inputs": [],
      "name": "paused",
      "outputs": [
        {
          "internalType": "bool",
          "name": "",
          "type": "bool"
        }
      ],
      "stateMutability": "view",
      "type": "function"
    },
    {
      "inputs": [
        {
          "internalType": "uint256",
          "name": "",
          "type": "uint256"
        }
      ],
      "name": "referralPercentages",
      "outputs": [
        {
          "internalType": "uint256",
          "name": "",
          "type": "uint256"
        }
      ],
      "stateMutability": "view",
      "type": "function"
    },
    {
      "inputs": [
        {
          "internalType": "address",
          "name": "",
          "type": "address"
        },
        {
          "internalType": "uint256",
          "name": "",
          "type": "uint256"
        }
      ],
      "name": "referralsByLevel",
      "outputs": [
        {
          "internalType": "uint256",
          "name": "",
          "type": "uint256"
        }
      ],
      "stateMutability": "view",
      "type": "function"
    },
    {
      "inputs": [],
      "name": "renounceOwnership",
      "outputs": [],
      "stateMutability": "nonpayable",
      "type": "function"
    },
    {
      "inputs": [
        {
          "internalType": "uint256",
          "name": "tier",
          "type": "uint256"
        },
        {
          "internalType": "uint256",
          "name": "newROI",
          "type": "uint256"
        }
      ],
      "name": "setDailyROI",
      "outputs": [],
      "stateMutability": "nonpayable",
      "type": "function"
    },
    {
      "inputs": [
        {
          "internalType": "bool",
          "name": "_paused",
          "type": "bool"
        }
      ],
      "name": "setPaused",
      "outputs": [],
      "stateMutability": "nonpayable",
      "type": "function"
    },
    {
      "inputs": [
        {
          "internalType": "address",
          "name": "_token",
          "type": "address"
        }
      ],
      "name": "setStakingToken",
      "outputs": [],
      "stateMutability": "nonpayable",
      "type": "function"
    },
    {
      "inputs": [
        {
          "internalType": "address",
          "name": "_treasury",
          "type": "address"
        }
      ],
      "name": "setTreasury",
      "outputs": [],
      "stateMutability": "nonpayable",
      "type": "function"
    },
    {
      "inputs": [],
      "name": "stakingToken",
      "outputs": [
        {
          "internalType": "contract IERC20",
          "name": "",
          "type": "address"
        }
      ],
      "stateMutability": "view",
      "type": "function"
    },
    {
      "inputs": [
        {
          "internalType": "address",
          "name": "newOwner",
          "type": "address"
        }
      ],
      "name": "transferOwnership",
      "outputs": [],
      "stateMutability": "nonpayable",
      "type": "function"
    },
    {
      "inputs": [],
      "name": "treasury",
      "outputs": [
        {
          "internalType": "address",
          "name": "",
          "type": "address"
        }
      ],
      "stateMutability": "view",
      "type": "function"
    },
    {
      "inputs": [
        {
          "internalType": "address",
          "name": "",
          "type": "address"
        }
      ],
      "name": "users",
      "outputs": [
        {
          "internalType": "address",
          "name": "referrer",
          "type": "address"
        },
        {
          "internalType": "uint256",
          "name": "totalInvested",
          "type": "uint256"
        },
        {
          "internalType": "uint256",
          "name": "totalWithdrawn",
          "type": "uint256"
        },
        {
          "internalType": "uint256",
          "name": "referralBalance",
          "type": "uint256"
        },
        {
          "internalType": "uint256",
          "name": "totalReferrals",
          "type": "uint256"
        }
      ],
      "stateMutability": "view",
      "type": "function"
    },
    {
      "inputs": [],
      "name": "withdrawReferral",
      "outputs": [],
      "stateMutability": "nonpayable",
      "type": "function"
    }
  ],
  "bytecode": "0x61012060405260646080908152609660a05260b460c05260c860e05260fa6101005262000031906004906005620002d6565b506040805160a081018252674563918244f4000081526801158e460913d0000060208201526802b5e3af16b188000091810191909152681b1ae4d6e2ef5000006060820152683635c9adc5dea000006080820152620000959060099060056200031e565b506040805160a081018252680107ad8f556c6c000081526802a802f8630a2400006020820152681b0d04202f47ec000091810191909152683627e8f712373c0000606082015268a2a15d09519be000006080820152620000fa90600e9060056200031e565b506040805160a0810182526105dc815261025860208201526101909181019190915261012c606082015260c860808201526200013b9060139060056200035a565b503480156200014957600080fd5b5060405162001c1738038062001c178339810160408190526200016c91620003c5565b33806200019457604051631e4fbdf760e01b8152600060048201526024015b60405180910390fd5b6200019f8162000286565b50600180556001600160a01b038216620001fc5760405162461bcd60e51b815260206004820152601560248201527f496e76616c696420746f6b656e2061646472657373000000000000000000000060448201526064016200018b565b6001600160a01b038116620002545760405162461bcd60e51b815260206004820152601860248201527f496e76616c69642074726561737572792061646472657373000000000000000060448201526064016200018b565b600280546001600160a01b039384166001600160a01b03199182161790915560038054929093169116179055620003fd565b600080546001600160a01b038381166001600160a01b0319831681178455604051919092169283917f8be0079c531659141344cd1fd0a4f28419497f9722a3daafe3b4186f6b6457e09190a35050565b82600581019282156200030c579160200282015b828111156200030c578251829060ff16905591602001919060010190620002ea565b506200031a92915062000391565b5090565b82600581019282156200030c579160200282015b828111156200030c57825182906001600160481b031690559160200191906001019062000332565b82600581019282156200030c579160200282015b828111156200030c578251829061ffff169055916020019190600101906200036e565b5b808211156200031a576000815560010162000392565b80516001600160a01b0381168114620003c057600080fd5b919050565b60008060408385031215620003d957600080fd5b620003e483620003a8565b9150620003f460208401620003a8565b90509250929050565b61180a806200040d6000396000f3fe608060405234801561001057600080fd5b50600436106101e55760003560e01c806374f0314f1161010f578063dd5967c3116100a2578063eea3b92111610071578063eea3b921146104f9578063f0f4426014610524578063f2fde38b14610537578063fbc45f7f146104d957600080fd5b8063dd5967c3146104c9578063e1e158a5146104d9578063e1f1c4a7146104e8578063e8e97aab146104f157600080fd5b8063a72c9e80116100de578063a72c9e8014610417578063a87430ba1461042a578063b662abf5146104a3578063cae82e2f146104b657600080fd5b806374f0314f146103e1578063873e31fa146103eb5780638da5cb5b146103fe5780639ea0e0741461040f57600080fd5b8063522e8847116101875780636386c1c7116101565780636386c1c71461032a5780636e553f65146103b3578063715018a6146103c657806372f702f3146103ce57600080fd5b8063522e8847146102a85780635312ea8e146102c85780635c975abb146102db57806361d027b3146102ff57600080fd5b80632f8045bb116101c35780632f8045bb14610259578063372500ab1461027a578063420a28cc14610282578063447a01291461029557600080fd5b806316c38b3c146101ea5780631e9b12ef146101ff5780632726b50614610212575b600080fd5b6101fd6101f83660046115e2565b61054a565b005b6101fd61020d366004611627565b6105aa565b610225610220366004611642565b61064f565b6040805196875260208701959095529385019290925260608401521515608083015260a082015260c0015b60405180910390f35b61026c61026736600461166c565b610721565b604051908152602001610250565b6101fd610738565b61026c61029036600461166c565b610996565b61026c6102a336600461166c565b6109a6565b6102bb6102b6366004611627565b6109b6565b6040516102509190611685565b6101fd6102d636600461166c565b610a26565b6003546102ef90600160a01b900460ff1681565b6040519015158152602001610250565b600354610312906001600160a01b031681565b6040516001600160a01b039091168152602001610250565b61037c610338366004611627565b6001600160a01b0390811660009081526018602052604090208054600182015460028301546003840154600485015460059095015493909516959194909390929091565b604080516001600160a01b0390971687526020870195909552938501929092526060840152608083015260a082015260c001610250565b6101fd6103c13660046116b6565b610a59565b6101fd610d71565b600254610312906001600160a01b031681565b61026c6201518081565b61026c6103f9366004611627565b610d83565b6000546001600160a01b0316610312565b6101fd610e0c565b6101fd6104253660046116e2565b610ef5565b610471610438366004611627565b601860205260009081526040902080546001820154600283015460038401546004909401546001600160a01b0390931693919290919085565b604080516001600160a01b0390961686526020860194909452928401919091526060830152608082015260a001610250565b61026c6104b136600461166c565b610fa2565b61026c6104c436600461166c565b610fb2565b61026c68a2a15d09519be0000081565b61026c674563918244f4000081565b61026c61271081565b61026c60c881565b61026c610507366004611642565b601960209081526000928352604080842090915290825290205481565b6101fd610532366004611627565b61105d565b6101fd610545366004611627565b611105565b610552611140565b60038054821515600160a01b0260ff60a01b199091161790556040517f0e2fb031ee032dc02d8011dc50b816eb450cf856abd8261680dac74f72165bd29061059f90831515815260200190565b60405180910390a150565b6105b2611140565b6001600160a01b0381166106055760405162461bcd60e51b8152602060048201526015602482015274496e76616c696420746f6b656e206164647265737360581b60448201526064015b60405180910390fd5b600280546001600160a01b0319166001600160a01b0383169081179091556040517f5ba6b30cd4b2f9e9e67f4feb9b9df10d5da3b057598e6901b217b7d590345e3090600090a250565b6001600160a01b03821660009081526018602052604081206005810154829182918291829182919088106106bd5760405162461bcd60e51b8152602060048201526015602482015274092dcecc2d8d2c840c8cae0dee6d2e840d2dcc8caf605b1b60448201526064016105fc565b60008160050189815481106106d4576106d4611704565b9060005260206000209060050201905060006106f08b8b61116d565b8254600184015460028501546003860154600490960154929f919e509c50939a5060ff169850965090945050505050565b6009816005811061073157600080fd5b0154905081565b6107406112b5565b600354600160a01b900460ff161561076a5760405162461bcd60e51b81526004016105fc9061171a565b3360008181526018602052604081209161078390610d83565b9050674563918244f400008110156107d85760405162461bcd60e51b815260206004820152601860248201527710995b1bddc81b5a5b9a5b5d5b481dda5d1a191c985dd85b60421b60448201526064016105fc565b60005b6005830154811015610922578260050181815481106107fc576107fc611704565b600091825260209091206004600590920201015460ff1615610910576000610824338361116d565b90508084600501838154811061083c5761083c611704565b9060005260206000209060050201600301600082825461085c919061175c565b925050819055506000606460c886600501858154811061087e5761087e611704565b90600052602060002090600502016000015461089a919061176f565b6108a49190611786565b9050808560050184815481106108bc576108bc611704565b9060005260206000209060050201600301541061090d5760008560050184815481106108ea576108ea611704565b60009182526020909120600590910201600401805460ff19169115159190911790555b50505b8061091a816117a8565b9150506107db565b5080826002016000828254610937919061175c565b9091555050600254610953906001600160a01b031633836112df565b60405181815233907ffc30cddea38e2bf4d6ea7d3f9ed3b6ad7f176419f4963bd81318067a4aee73fe906020015b60405180910390a2505061099460018055565b565b600e816005811061073157600080fd5b6004816005811061073157600080fd5b6109be6115c4565b6109c66115c4565b60005b6005811015610a1f576001600160a01b0384166000908152601960209081526040808320848452909152902054828260058110610a0857610a08611704565b602002015280610a17816117a8565b9150506109c9565b5092915050565b610a2e611140565b610a56610a436000546001600160a01b031690565b6002546001600160a01b031690836112df565b50565b610a616112b5565b600354600160a01b900460ff1615610a8b5760405162461bcd60e51b81526004016105fc9061171a565b674563918244f400008210158015610aac575068a2a15d09519be000008211155b610af15760405162461bcd60e51b8152602060048201526016602482015275125b9d985b1a590819195c1bdcda5d08185b5bdd5b9d60521b60448201526064016105fc565b336001600160a01b03821603610b415760405162461bcd60e51b815260206004820152601560248201527421b0b73737ba103932b332b9103cb7bab939b2b63360591b60448201526064016105fc565b6000610b4c83610fb2565b905060058110610b955760405162461bcd60e51b815260206004820152601460248201527324b73b30b634b2103830b1b5b0b3b2903a34b2b960611b60448201526064016105fc565b33600090815260186020526040902080546001600160a01b0316158015610bc457506001600160a01b03831615155b8015610bea57506001600160a01b03831660009081526018602052604090206001015415155b15610c095780546001600160a01b0319166001600160a01b0384161781555b600254610c21906001600160a01b0316333087611343565b6040805160a08101825285815260208082018581524293830193845260006060840181815260016080860181815260058981018054808501825590865296852097519602909601948555925184840155945160028401559351600383015591516004909101805460ff191691151591909117905582018054869290610ca790849061175c565b909155505080546001600160a01b031615610ccb57610cc63385611382565b610d19565b6003546001600160a01b031615610d19576000612710610ced86610bb861176f565b610cf79190611786565b600354600254919250610d17916001600160a01b039081169116836112df565b505b805460408051868152602081018590526001600160a01b039092169133917fa49637e3f6491de6c2c23c5006bef69df603d0dba9d65c8b756fe46ac29810b9910160405180910390a35050610d6d60018055565b5050565b610d79611140565b6109946000611503565b6001600160a01b038116600090815260186020526040812081805b6005830154811015610e0457826005018181548110610dbf57610dbf611704565b600091825260209091206004600590920201015460ff1615610df257610de5858261116d565b610def908361175c565b91505b80610dfc816117a8565b915050610d9e565b509392505050565b610e146112b5565b600354600160a01b900460ff1615610e3e5760405162461bcd60e51b81526004016105fc9061171a565b3360009081526018602052604090206003810154674563918244f40000811015610ea55760405162461bcd60e51b815260206004820152601860248201527710995b1bddc81b5a5b9a5b5d5b481dda5d1a191c985dd85b60421b60448201526064016105fc565b60006003830155600254610ec3906001600160a01b031633836112df565b60405181815233907f8d38441deb8d3c27d5ddaa8308892edabf1c6556c655494ac56ab41f7d85220890602001610981565b610efd611140565b60058210610f3c5760405162461bcd60e51b815260206004820152600c60248201526b24b73b30b634b2103a34b2b960a11b60448201526064016105fc565b600081118015610f4e57506101f48111155b610f885760405162461bcd60e51b815260206004820152600b60248201526a496e76616c696420524f4960a81b60448201526064016105fc565b8060048360058110610f9c57610f9c611704565b01555050565b6013816005811061073157600080fd5b6000805b60058110156110145760098160058110610fd257610fd2611704565b01548310158015610ff75750600e8160058110610ff157610ff1611704565b01548311155b156110025792915050565b8061100c816117a8565b915050610fb6565b5060405162461bcd60e51b815260206004820152601f60248201527f416d6f756e7420646f6573206e6f742066697420616e79207061636b6167650060448201526064016105fc565b611065611140565b6001600160a01b0381166110bb5760405162461bcd60e51b815260206004820152601860248201527f496e76616c69642074726561737572792061646472657373000000000000000060448201526064016105fc565b600380546001600160a01b0319166001600160a01b0383169081179091556040517f7dae230f18360d76a040c81f050aa14eb9d6dc7901b20fc5d855e2a20fe814d190600090a250565b61110d611140565b6001600160a01b03811661113757604051631e4fbdf760e01b8152600060048201526024016105fc565b610a5681611503565b6000546001600160a01b031633146109945760405163118cdaa760e01b81523360048201526024016105fc565b6001600160a01b03821660009081526018602052604081206005810180548391908590811061119e5761119e611704565b60009182526020909120600590910201600481015490915060ff166111c8576000925050506112af565b60008160020154426111da91906117c1565b9050600060048360010154600581106111f5576111f5611704565b01549050600061120a6127106201518061176f565b8454849061121990859061176f565b611223919061176f565b61122d9190611786565b90506000606460c88660000154611244919061176f565b61124e9190611786565b600386015490915081611261828561175c565b111561128d5780821161127557600061127f565b61127f81836117c1565b9750505050505050506112af565b80831161129b5760006112a5565b6112a581846117c1565b9750505050505050505b92915050565b6002600154036112d857604051633ee5aeb560e01b815260040160405180910390fd5b6002600155565b6040516001600160a01b0383811660248301526044820183905261133e91859182169063a9059cbb906064015b604051602081830303815290604052915060e01b6020820180516001600160e01b038381831617835250505050611553565b505050565b6040516001600160a01b03848116602483015283811660448301526064820183905261137c9186918216906323b872dd9060840161130c565b50505050565b6001600160a01b03808316600090815260186020526040812054909116905b6005811080156113b957506001600160a01b03821615155b1561137c576000612710601383600581106113d6576113d6611704565b01546113e2908661176f565b6113ec9190611786565b6001600160a01b03841660009081526018602052604081206003018054929350839290919061141c90849061175c565b90915550506001600160a01b0383166000908152601860205260408120600401805491611448836117a8565b90915550506001600160a01b0383166000908152601960209081526040808320858452909152812080549161147c836117a8565b90915550506001600160a01b038086169084167f65db98422e8b7340e0d6dfa99bbadd4ba95a51fefafd8f0e1cbbb2e819429a426114bb85600161175c565b60408051918252602082018690520160405180910390a3506001600160a01b0391821660009081526018602052604090205490911690806114fb816117a8565b9150506113a1565b600080546001600160a01b038381166001600160a01b0319831681178455604051919092169283917f8be0079c531659141344cd1fd0a4f28419497f9722a3daafe3b4186f6b6457e09190a35050565b600080602060008451602086016000885af180611576576040513d6000823e3d81fd5b50506000513d9150811561158e57806001141561159b565b6001600160a01b0384163b155b1561137c57604051635274afe760e01b81526001600160a01b03851660048201526024016105fc565b6040518060a001604052806005906020820280368337509192915050565b6000602082840312156115f457600080fd5b8135801515811461160457600080fd5b9392505050565b80356001600160a01b038116811461162257600080fd5b919050565b60006020828403121561163957600080fd5b6116048261160b565b6000806040838503121561165557600080fd5b61165e8361160b565b946020939093013593505050565b60006020828403121561167e57600080fd5b5035919050565b60a08101818360005b60058110156116ad57815183526020928301929091019060010161168e565b50505092915050565b600080604083850312156116c957600080fd5b823591506116d96020840161160b565b90509250929050565b600080604083850312156116f557600080fd5b50508035926020909101359150565b634e487b7160e01b600052603260045260246000fd5b60208082526012908201527110dbdb9d1c9858dd081a5cc81c185d5cd95960721b604082015260600190565b634e487b7160e01b600052601160045260246000fd5b808201808211156112af576112af611746565b80820281158282048414176112af576112af611746565b6000826117a357634e487b7160e01b600052601260045260246000fd5b500490565b6000600182016117ba576117ba611746565b5060010190565b818103818111156112af576112af61174656fea2646970667358221220c648696a27e18cd73db800857b3bff1fc7351ea1a92424ecd6fb3630de725c1964736f6c63430008140033",
  "linkReferences": {},
  "deployedLinkReferences": {}
}